62054885312000ISENTO        ANTONIO SILVA                      SP04001           2019021621U  0000000017907b10b3c1868f06ab55aff7c26f261000000005999000000005999000000000000000000000000000000000000N190200000000115987658765 1030015987658765 999999990009991                   0000000059990000000000000000                                                  00000000                                   574164173c6dc6c34b7804cd9c0fbcf4
62054885312000ISENTO        ANTONIO SILVA                      SP04002           2019021621U  000000002df5c437978f6ff0a9f954875562ae78e000000005999000000005999000000000000000000000000000000000000N190200000000315987658765 1030015987658765 999999990009992                   0000000059990000000000000000                                                  00000000                                   0a5f88903b04758b05e1b6093311d00a
62054885312000ISENTO        ANTONIO SILVA                      SP04003           2019021621U  00000000318274bd0b7e3955eb5a5d516579929c7000000005999000000005999000000000000000000000000000000000000N190200000000515987658765 1030015987658765 999999990009993                   0000000059990000000000000000                                                  00000000                                   5dcb4519136664df91398139243e1ecb
62054885312000ISENTO        ANTONIO SILVA                      SP04004           2019021621U  000000004c40ad47c4b32117d01cb54ce03ed8233000000005999000000005999000000000000000000000000000000000000N190200000000715987658765 1030015987658765 999999990009994                   0000000059990000000000000000                                                  00000000                                   c52f6bbe1e684bfacecb1918f555f85b
62054885312000ISENTO        ANTONIO SILVA                      SP04005           2019021621U  00000000529834657ebbfa7b1f79a07d9c3f5f0d4000000005999000000005999000000000000000000000000000000000000N190200000000915987658765 1030015987658765 999999990009995                   0000000059990000000000000000                                                  00000000                                   a09a932d447184d53e0d348338d64ec5
62054885312000ISENTO        ANTONIO SILVA                      SP04006           2019021621U  00000000662b8979988fe0d1558969ffbe9223c60000000005999000000005999000000000000000000000000000000000000N190200000001115987658765 1030015987658765 999999990009996                   0000000059990000000000000000                                                  00000000                                   06a737911f34dc62223aa1ea2ffe0d29
62054885312000ISENTO        ANTONIO SILVA                      SP04007           2019021621U  0000000071c0868e21e6763a3478d944fe301cae8000000005999000000005999000000000000000000000000000000000000N190200000001315987658765 1030015987658765 999999990009997                   0000000059990000000000000000                                                  00000000                                   f629945ae9b1b5ccad89d54800b3f189
62054885312000ISENTO        ANTONIO SILVA                      SP04008           2019021621U  00000000856940b9dacf36f04fc83c04ba538f766000000005999000000005999000000000000000000000000000000000000N190200000001515987658765 1030015987658765 999999990009998                   0000000059990000000000000000                                                  00000000                                   48de3f4df22a69a94a1c098b286c466d
62054885312000ISENTO        ANTONIO SILVA                      SP04009           2019021621U  000000009368fc415fa6546dc03746bb6af9583d0000000005999000000005999000000000000000000000000000000000000N190200000001715987658765 1030015987658765 999999990009999                   0000000059990000000000000000                                                  00000000                                   940298560906d3bbf3387ad7b0ecb530
62054885312000ISENTO        ANTONIO SILVA                      SP040010          2019021621U  0000000100309acb305c416e6be999168c8762432000000005999000000005999000000000000000000000000000000000000N190200000001915987658765 1030015987658765 9999999900099910                  0000000059990000000000000000                                                  00000000                                   70aaecd120e99ed464bf9d9a868c8bc6
62054885312000ISENTO        ANTONIO SILVA                      SP040011          2019021621U  000000011aa808c982e291a67319eaa3714dadabf000000005999000000005999000000000000000000000000000000000000N190200000002115987658765 1030015987658765 9999999900099911                  0000000059990000000000000000                                                  00000000                                   d42db29ac844847c7e9bf715c50fba8b
62054885312000ISENTO        ANTONIO SILVA                      SP040012          2019021621U  000000012629acce5a74a3dd05f0403b59135c82e000000005999000000005999000000000000000000000000000000000000N190200000002315987658765 1030015987658765 9999999900099912                  0000000059990000000000000000                                                  00000000                                   bf8a11485e1dc92e4d2533f75968a548
62054885312000ISENTO        ANTONIO SILVA                      SP040013          2019021621U  000000013fb94086c1b175e8cb55b2dc6e70ecae7000000005999000000005999000000000000000000000000000000000000N190200000002515987658765 1030015987658765 9999999900099913                  0000000059990000000000000000                                                  00000000                                   227d90d3a53cbb94297ca7c2b99dcaa5
62054885312000ISENTO        ANTONIO SILVA                      SP040014          2019021621U  000000014f9cdecfeb7a1de442dd1ec90b1ca80ad000000005999000000005999000000000000000000000000000000000000N190200000002715987658765 1030015987658765 9999999900099914                  0000000059990000000000000000                                                  00000000                                   51d7beae15b2c5bce5fb8ab00091704b
62054885312000ISENTO        ANTONIO SILVA                      SP040015          2019021621U  000000015e7e895e05099cdcf8ce682a01cd1d814000000005999000000005999000000000000000000000000000000000000N190200000002915987658765 1030015987658765 9999999900099915                  0000000059990000000000000000                                                  00000000                                   bfd1f5d10e793927c68c91b4557a8856
62054885312000ISENTO        ANTONIO SILVA                      SP040016          2019021621U  000000016636115264261cbc42814b6b563f05e14000000005999000000005999000000000000000000000000000000000000N190200000003115987658765 1030015987658765 9999999900099916                  0000000059990000000000000000                                                  00000000                                   b072a6e2d9fba3c7a6b1e48a43eeecc5
62054885312000ISENTO        ANTONIO SILVA                      SP040017          2019021621U  0000000176274d57a684d9623632ebaffd1854db8000000005999000000005999000000000000000000000000000000000000N190200000003315987658765 1030015987658765 9999999900099917                  0000000059990000000000000000                                                  00000000                                   a8637ad4e6034c2caa1f2768a18c2c09
62054885312000ISENTO        ANTONIO SILVA                      SP040018          2019021621U  0000000183535d27f445ed7b91e60712a29f9386a000000005999000000005999000000000000000000000000000000000000N190200000003515987658765 1030015987658765 9999999900099918                  0000000059990000000000000000                                                  00000000                                   e766e21c0642d4cc7fd30381c6c99962
62054885312000ISENTO        ANTONIO SILVA                      SP040019          2019021621U  000000019adc588169b0adba1e85c37741689e57e000000005999000000005999000000000000000000000000000000000000N190200000003715987658765 1030015987658765 9999999900099919                  0000000059990000000000000000                                                  00000000                                   727e8449d6f2a514713af6f4f0b96d9a
62054885312000ISENTO        ANTONIO SILVA                      SP040020          2019021621U  000000020bfbbb50c98fdbef5ff0f1a8d8d7ea1a1000000005999000000005999000000000000000000000000000000000000N190200000003915987658765 1030015987658765 9999999900099920                  0000000059990000000000000000                                                  00000000                                   58d04026650c8cead9d800c274302c81
62054885312000ISENTO        ANTONIO SILVA                      SP040021          2019021621U  0000000212ba0feb941830b77cd1291a662dceeb0000000005999000000005999000000000000000000000000000000000000N190200000004115987658765 1030015987658765 9999999900099921                  0000000059990000000000000000                                                  00000000                                   735bceff5f6aa0d83f59abb57ea00707
62054885312000ISENTO        ANTONIO SILVA                      SP040022          2019021621U  0000000227383be8a8e8a9aeeebb2763295f6c80e000000005999000000005999000000000000000000000000000000000000N190200000004315987658765 1030015987658765 9999999900099922                  0000000059990000000000000000                                                  00000000                                   caad6a8087c61e901b120c05b61038f8
62054885312000ISENTO        ANTONIO SILVA                      SP040023          2019021621U  00000002367e461757ac7fbc5d3c7e4f1516445a0000000005999000000005999000000000000000000000000000000000000N190200000004515987658765 1030015987658765 9999999900099923                  0000000059990000000000000000                                                  00000000                                   96f117095cb50c99a9f4629f62edd1bc
62054885312000ISENTO        ANTONIO SILVA                      SP040024          2019021621U  0000000248022ed11391e916488c49c6bd06ebe94000000005999000000005999000000000000000000000000000000000000N190200000004715987658765 1030015987658765 9999999900099924                  0000000059990000000000000000                                                  00000000                                   a4568c442fb13235b7e8d1afe1eaa7ae
62054885312000ISENTO        ANTONIO SILVA                      SP040025          2019021621U  000000025c0c6b4aaf2c733fc990f91f7f7cdf27f000000005999000000005999000000000000000000000000000000000000N190200000004915987658765 1030015987658765 9999999900099925                  0000000059990000000000000000                                                  00000000                                   172ecc65481005aa265afc7b6f00c951
62054885312000ISENTO        ANTONIO SILVA                      SP040026          2019021621U  000000026f8e487243e11d62982ccb4d8cfd6d73d000000005999000000005999000000000000000000000000000000000000N190200000005115987658765 1030015987658765 9999999900099926                  0000000059990000000000000000                                                  00000000                                   7279f2da5741a04e6f5cfe79cb5495a4
62054885312000ISENTO        ANTONIO SILVA                      SP040027          2019021621U  000000027cad586b861c411d8de2e0a0249ff0f48000000005999000000005999000000000000000000000000000000000000N190200000005315987658765 1030015987658765 9999999900099927                  0000000059990000000000000000                                                  00000000                                   e168b1b7334104d7f804844a7d786990
62054885312000ISENTO        ANTONIO SILVA                      SP040028          2019021621U  000000028269bbe4e2bb93361253ae5877141ef5f000000005999000000005999000000000000000000000000000000000000N190200000005515987658765 1030015987658765 9999999900099928                  0000000059990000000000000000                                                  00000000                                   3eb4424a649f3453ed42364971844c17
62054885312000ISENTO        ANTONIO SILVA                      SP040029          2019021621U  0000000297b728aef9b75a31ff7053c63849b9f0f000000005999000000005999000000000000000000000000000000000000N190200000005715987658765 1030015987658765 9999999900099929                  0000000059990000000000000000                                                  00000000                                   5fde5b710930922fe494300221f58388
62054885312000ISENTO        ANTONIO SILVA                      SP040030          2019021621U  000000030be851f6951689f406ec2ac6370176c14000000005999000000005999000000000000000000000000000000000000N190200000005915987658765 1030015987658765 9999999900099930                  0000000059990000000000000000                                                  00000000                                   4c1c13db4899ab5f488884811f9c90bb
62054885312000ISENTO        ANTONIO SILVA                      SP040031          2019021621U  00000003198d64faead21761c596413ee0789dced000000005999000000005999000000000000000000000000000000000000N190200000006115987658765 1030015987658765 9999999900099931                  0000000059990000000000000000                                                  00000000                                   e5a85ad88a557e848aaac9576c9cf61b
62054885312000ISENTO        ANTONIO SILVA                      SP040032          2019021621U  00000003227d5dba3c3a5f5d75aac8171b0c42efe000000005999000000005999000000000000000000000000000000000000N190200000006315987658765 1030015987658765 9999999900099932                  0000000059990000000000000000                                                  00000000                                   070c8a5690354290cef972457f7286fd
62054885312000ISENTO        ANTONIO SILVA                      SP040033          2019021621U  0000000337eb48538975805d103e3d5c62fb061ed000000005999000000005999000000000000000000000000000000000000N190200000006515987658765 1030015987658765 9999999900099933                  0000000059990000000000000000                                                  00000000                                   a864b38a8f43cacd34825d762dc1f171
62054885312000ISENTO        ANTONIO SILVA                      SP040034          2019021621U  0000000343ba76050758a23fbf64eac98778f7bd4000000005999000000005999000000000000000000000000000000000000N190200000006715987658765 1030015987658765 9999999900099934                  0000000059990000000000000000                                                  00000000                                   9b4bdde825d188c52c072621def321fd
62054885312000ISENTO        ANTONIO SILVA                      SP040035          2019021621U  000000035b91b12720256fb8ff3f8892c476f4292000000005999000000005999000000000000000000000000000000000000N190200000006915987658765 1030015987658765 9999999900099935                  0000000059990000000000000000                                                  00000000                                   dc0e8b1f3b31cba7aaf90821b1f87ae2
62054885312000ISENTO        ANTONIO SILVA                      SP040036          2019021621U  000000036142c430a75efac617ea33ad39fcfcff6000000005999000000005999000000000000000000000000000000000000N190200000007115987658765 1030015987658765 9999999900099936                  0000000059990000000000000000                                                  00000000                                   aabe24ff46d5e3eab347807137a5fdcc
62054885312000ISENTO        ANTONIO SILVA                      SP040037          2019021621U  000000037f83deb7a3a66316a04b7ae14fd9e7f60000000005999000000005999000000000000000000000000000000000000N190200000007315987658765 1030015987658765 9999999900099937                  0000000059990000000000000000                                                  00000000                                   7aaee53ba64b0384f9da9e45a72691b2
62054885312000ISENTO        ANTONIO SILVA                      SP040038          2019021621U  0000000380b68e4f0ddd5935b7ae0ab1669ddafeb000000005999000000005999000000000000000000000000000000000000N190200000007515987658765 1030015987658765 9999999900099938                  0000000059990000000000000000                                                  00000000                                   341addbfadf7a469019942bf5881765d
62054885312000ISENTO        ANTONIO SILVA                      SP040039          2019021621U  0000000398486ca163b8d1714e4b308ce9c9ae977000000005999000000005999000000000000000000000000000000000000N190200000007715987658765 1030015987658765 9999999900099939                  0000000059990000000000000000                                                  00000000                                   9cec972c393b5c8bec9297be91d5a467
62054885312000ISENTO        ANTONIO SILVA                      SP040040          2019021621U  00000004028e6a5234343c97eaf5bb6523e115d99000000005999000000005999000000000000000000000000000000000000N190200000007915987658765 1030015987658765 9999999900099940                  0000000059990000000000000000                                                  00000000                                   b37e37669537f8c80134ed6e52be212a
62054885312000ISENTO        ANTONIO SILVA                      SP040041          2019021621U  00000004187e4012a3a85eb7bba7ccfc3950839e9000000005999000000005999000000000000000000000000000000000000N190200000008115987658765 1030015987658765 9999999900099941                  0000000059990000000000000000                                                  00000000                                   5cf5da298f165395e2fc971b1439a9b1
62054885312000ISENTO        ANTONIO SILVA                      SP040042          2019021621U  000000042e9b74b050ad8cd3fd904f0a2a4739b73000000005999000000005999000000000000000000000000000000000000N190200000008315987658765 1030015987658765 9999999900099942                  0000000059990000000000000000                                                  00000000                                   5255545cafe2d45843442ff6cb8d1dcf
62054885312000ISENTO        ANTONIO SILVA                      SP040043          2019021621U  00000004359d9f9d93639d6d331b7f1cb90f54d1e000000005999000000005999000000000000000000000000000000000000N190200000008515987658765 1030015987658765 9999999900099943                  0000000059990000000000000000                                                  00000000                                   7a02d475c3378b9c07e3e841aa13561d
62054885312000ISENTO        ANTONIO SILVA                      SP040044          2019021621U  000000044b79b6bda1aaefefd3af8fa0af89d8290000000005999000000005999000000000000000000000000000000000000N190200000008715987658765 1030015987658765 9999999900099944                  0000000059990000000000000000                                                  00000000                                   8a265da7aa4582bc114e5425b479c0c5
62054885312000ISENTO        ANTONIO SILVA                      SP040045          2019021621U  0000000456df16ca6cff7d27a1b153d492a095f57000000005999000000005999000000000000000000000000000000000000N190200000008915987658765 1030015987658765 9999999900099945                  0000000059990000000000000000                                                  00000000                                   178e591306b162af4f55b4c4e779a82d
62054885312000ISENTO        ANTONIO SILVA                      SP040046          2019021621U  00000004664da1f2520dbf43352b85f75422223ea000000005999000000005999000000000000000000000000000000000000N190200000009115987658765 1030015987658765 9999999900099946                  0000000059990000000000000000                                                  00000000                                   b3f65252fbbe38c48973c7ef7dd1111a
62054885312000ISENTO        ANTONIO SILVA                      SP040047          2019021621U  00000004742fef19d46a846326972bfd57cdbe363000000005999000000005999000000000000000000000000000000000000N190200000009315987658765 1030015987658765 9999999900099947                  0000000059990000000000000000                                                  00000000                                   8bded4475c866b7ff3743dd295419ece
62054885312000ISENTO        ANTONIO SILVA                      SP040048          2019021621U  00000004884fe2bae0021ee760ac42bfccfb2800f000000005999000000005999000000000000000000000000000000000000N190200000009515987658765 1030015987658765 9999999900099948                  0000000059990000000000000000                                                  00000000                                   3a8d638689160ffd2fc98a9061dd13f6
62054885312000ISENTO        ANTONIO SILVA                      SP040049          2019021621U  0000000492c52519f0c24a7cfee0f0e88fb37d507000000005999000000005999000000000000000000000000000000000000N190200000009715987658765 1030015987658765 9999999900099949                  0000000059990000000000000000                                                  00000000                                   53bd512d1c7b16781425d276e2869827
62054885312000ISENTO        ANTONIO SILVA                      SP040050          2019021621U  0000000506c279df6989293d2067c93758151e590000000005999000000005999000000000000000000000000000000000000N190200000009915987658765 1030015987658765 9999999900099950                  0000000059990000000000000000                                                  00000000                                   ee7e332435dae42f5ef41a68086c5ffc
62054885312000ISENTO        ANTONIO SILVA                      SP040051          2019021621U  000000051efef07b2bb2484e69443fd1c6480b8e1000000005999000000005999000000000000000000000000000000000000N190200000010115987658765 1030015987658765 9999999900099951                  0000000059990000000000000000                                                  00000000                                   0f7ccbb8abfbc253ca9a63e2a2e9b989
62054885312000ISENTO        ANTONIO SILVA                      SP040052          2019021621U  0000000522d22bcb9263717f1709f1fc3eb0644fd000000005999000000005999000000000000000000000000000000000000N190200000010315987658765 1030015987658765 9999999900099952                  0000000059990000000000000000                                                  00000000                                   889468a0a726417d64b4c90651844fb0
62054885312000ISENTO        ANTONIO SILVA                      SP040053          2019021621U  0000000532743615a7f6ff8ec895c6039fb46d41a000000005999000000005999000000000000000000000000000000000000N190200000010515987658765 1030015987658765 9999999900099953                  0000000059990000000000000000                                                  00000000                                   0dab48e82b4c5e901f87a2ce307a2b9d
62054885312000ISENTO        ANTONIO SILVA                      SP040054          2019021621U  000000054f37fb8f6393050b891087f9d2df805b3000000005999000000005999000000000000000000000000000000000000N190200000010715987658765 1030015987658765 9999999900099954                  0000000059990000000000000000                                                  00000000                                   21ab381b9a53b03d7cc0e1eba558a49a
62054885312000ISENTO        ANTONIO SILVA                      SP040055          2019021621U  00000005598ca529a49ea47fb941836497d8c4ea0000000005999000000005999000000000000000000000000000000000000N190200000010915987658765 1030015987658765 9999999900099955                  0000000059990000000000000000                                                  00000000                                   7c285686f746b2b786c209717eaa9e48
62054885312000ISENTO        ANTONIO SILVA                      SP040056          2019021621U  0000000563df616695c972f118b995a5fce977cd3000000005999000000005999000000000000000000000000000000000000N190200000011115987658765 1030015987658765 9999999900099956                  0000000059990000000000000000                                                  00000000                                   0e59ce5d350c6137d5876afb975f74f0
62054885312000ISENTO        ANTONIO SILVA                      SP040057          2019021621U  000000057ef0f57c47c3cbde1ef043e754866a09e000000005999000000005999000000000000000000000000000000000000N190200000011315987658765 1030015987658765 9999999900099957                  0000000059990000000000000000                                                  00000000                                   3bf75c3648cf735eeae3d1c2e7662138
62054885312000ISENTO        ANTONIO SILVA                      SP040058          2019021621U  0000000585d2ef40409123d93878f2e14fc53c370000000005999000000005999000000000000000000000000000000000000N190200000011515987658765 1030015987658765 9999999900099958                  0000000059990000000000000000                                                  00000000                                   3da26c9063ac9f03c2a71f913fa79a26
62054885312000ISENTO        ANTONIO SILVA                      SP040059          2019021621U  000000059db540e4f90f1bdc74bc933d57d1f1a54000000005999000000005999000000000000000000000000000000000000N190200000011715987658765 1030015987658765 9999999900099959                  0000000059990000000000000000                                                  00000000                                   82ffedc88b352d1f36ac57223b11b643
62054885312000ISENTO        ANTONIO SILVA                      SP040060          2019021621U  0000000603d7342d732e085312382515e50bda3ad000000005999000000005999000000000000000000000000000000000000N190200000011915987658765 1030015987658765 9999999900099960                  0000000059990000000000000000                                                  00000000                                   85a17dd52a9533d727d4d4b37c77d7ee
62054885312000ISENTO        ANTONIO SILVA                      SP040061          2019021621U  000000061c4501606813d1123d1d3654bfec0495f000000005999000000005999000000000000000000000000000000000000N190200000012115987658765 1030015987658765 9999999900099961                  0000000059990000000000000000                                                  00000000                                   190ffa818aeb0dbcd88f42548a0c6945
62054885312000ISENTO        ANTONIO SILVA                      SP040062          2019021621U  000000062ada4c85769ff7bcb56130ff221f5d39b000000005999000000005999000000000000000000000000000000000000N190200000012315987658765 1030015987658765 9999999900099962                  0000000059990000000000000000                                                  00000000                                   a21c53672634abfaaa9078ca90d4b46f
62054885312000ISENTO        ANTONIO SILVA                      SP040063          2019021621U  000000063859e18ab2771d43a64b8a1e76604b257000000005999000000005999000000000000000000000000000000000000N190200000012515987658765 1030015987658765 9999999900099963                  0000000059990000000000000000                                                  00000000                                   0ff9db4da0afb857e05b91275c6d4d6d
62054885312000ISENTO        ANTONIO SILVA                      SP040064          2019021621U  000000064fa239bda1c1a222452e4035481c68fa7000000005999000000005999000000000000000000000000000000000000N190200000012715987658765 1030015987658765 9999999900099964                  0000000059990000000000000000                                                  00000000                                   29a5421e5b52fe5ca193451d45479560
62054885312000ISENTO        ANTONIO SILVA                      SP040065          2019021621U  000000065a8a10664cee98202e7fcc74845a48c3b000000005999000000005999000000000000000000000000000000000000N190200000012915987658765 1030015987658765 9999999900099965                  0000000059990000000000000000                                                  00000000                                   b571f7ae257c0de7f71207bb79966b62
62054885312000ISENTO        ANTONIO SILVA                      SP040066          2019021621U  00000006668665b2900b5a9e8da1ab704af647d0d000000005999000000005999000000000000000000000000000000000000N190200000013115987658765 1030015987658765 9999999900099966                  0000000059990000000000000000                                                  00000000                                   f4acd66017d74475e0f90002d3acfb5b
62054885312000ISENTO        ANTONIO SILVA                      SP040067          2019021621U  0000000676d3089667625f9a93adcb2b36984b323000000005999000000005999000000000000000000000000000000000000N190200000013315987658765 1030015987658765 9999999900099967                  0000000059990000000000000000                                                  00000000                                   acbb0374e4f54498d413a99123bd1040
62054885312000ISENTO        ANTONIO SILVA                      SP040068          2019021621U  000000068346e5e90a24ad78d554b555ad7ad507e000000005999000000005999000000000000000000000000000000000000N190200000013515987658765 1030015987658765 9999999900099968                  0000000059990000000000000000                                                  00000000                                   41eb8383ecaf8570d747a47c36e2e39b
62054885312000ISENTO        ANTONIO SILVA                      SP040069          2019021621U  0000000690dfcbb37635b3589386c8d854b6cb927000000005999000000005999000000000000000000000000000000000000N190200000013715987658765 1030015987658765 9999999900099969                  0000000059990000000000000000                                                  00000000                                   4b2aca4e1a36248ec11d216fe33bbd0e
62054885312000ISENTO        ANTONIO SILVA                      SP040070          2019021621U  000000070687a19ff691aebcccbf8759bd5755974000000005999000000005999000000000000000000000000000000000000N190200000013915987658765 1030015987658765 9999999900099970                  0000000059990000000000000000                                                  00000000                                   fd52a77f42631db7bf5a63778a9f54c7
62054885312000ISENTO        ANTONIO SILVA                      SP040071          2019021621U  0000000718b9a76183b96adef75ce563cb6f66b58000000005999000000005999000000000000000000000000000000000000N190200000014115987658765 1030015987658765 9999999900099971                  0000000059990000000000000000                                                  00000000                                   860e89ed1e452dbebaa9483264086df0
62054885312000ISENTO        ANTONIO SILVA                      SP040072          2019021621U  0000000724e29002af549973f4ec12c987e6724ab000000005999000000005999000000000000000000000000000000000000N190200000014315987658765 1030015987658765 9999999900099972                  0000000059990000000000000000                                                  00000000                                   f308d04bd8e663834b7e5da01b84c43c
62054885312000ISENTO        ANTONIO SILVA                      SP040073          2019021621U  000000073b774a14920d9133f889e1f6455f66972000000005999000000005999000000000000000000000000000000000000N190200000014515987658765 1030015987658765 9999999900099973                  0000000059990000000000000000                                                  00000000                                   dec05476b4321f0bdf4c0513540c93d0
62054885312000ISENTO        ANTONIO SILVA                      SP040074          2019021621U  0000000745bf299bb6752bce708336501907e02bb000000005999000000005999000000000000000000000000000000000000N190200000014715987658765 1030015987658765 9999999900099974                  0000000059990000000000000000                                                  00000000                                   de5dcc7fbfa088c9e4f6b8708322f536
62054885312000ISENTO        ANTONIO SILVA                      SP040075          2019021621U  000000075b8aae1dab915c9d68e486f6996398964000000005999000000005999000000000000000000000000000000000000N190200000014915987658765 1030015987658765 9999999900099975                  0000000059990000000000000000                                                  00000000                                   60adfa256c68f02a9ab6ee6ba93f4c0f
62054885312000ISENTO        ANTONIO SILVA                      SP040076          2019021621U  00000007614ef0b6b3f6d7d114114414cdbc5a8e0000000005999000000005999000000000000000000000000000000000000N190200000015115987658765 1030015987658765 9999999900099976                  0000000059990000000000000000                                                  00000000                                   f552d7c83fa37aec3c6b14eac6af4c69
62054885312000ISENTO        ANTONIO SILVA                      SP040077          2019021621U  00000007784c56bd9b740afd8aa2b49a3a697f717000000005999000000005999000000000000000000000000000000000000N190200000015315987658765 1030015987658765 9999999900099977                  0000000059990000000000000000                                                  00000000                                   b3d31d903e5efb4a2b78863bcf26e8dc
62054885312000ISENTO        ANTONIO SILVA                      SP040078          2019021621U  0000000788e00f9ac08267c4cbd80a19dce60653a000000005999000000005999000000000000000000000000000000000000N190200000015515987658765 1030015987658765 9999999900099978                  0000000059990000000000000000                                                  00000000                                   17b0b0c76c679c0df07de7158cf0b512
62054885312000ISENTO        ANTONIO SILVA                      SP040079          2019021621U  00000007946a58ae5a50cbac6938c8019d7e94f21000000005999000000005999000000000000000000000000000000000000N190200000015715987658765 1030015987658765 9999999900099979                  0000000059990000000000000000                                                  00000000                                   40f21f269398fb6ab53e7caf6b03daa4
62054885312000ISENTO        ANTONIO SILVA                      SP040080          2019021621U  0000000801a71a49a2c6ec73e09f0d891fda17d86000000005999000000005999000000000000000000000000000000000000N190200000015915987658765 1030015987658765 9999999900099980                  0000000059990000000000000000                                                  00000000                                   794e2dbbc5394648f036d75943dc3bb5
62054885312000ISENTO        ANTONIO SILVA                      SP040081          2019021621U  00000008157d180ef2bba7a87df198b2565a91051000000005999000000005999000000000000000000000000000000000000N190200000016115987658765 1030015987658765 9999999900099981                  0000000059990000000000000000                                                  00000000                                   87d11692af67f82c96e743b7b706dd03
62054885312000ISENTO        ANTONIO SILVA                      SP040082          2019021621U  00000008283b250a1c8f95f37d4e19fe5f60122a7000000005999000000005999000000000000000000000000000000000000N190200000016315987658765 1030015987658765 9999999900099982                  0000000059990000000000000000                                                  00000000                                   1f6350ed4117402cf6bfda4e1ec475a7
62054885312000ISENTO        ANTONIO SILVA                      SP040083          2019021621U  00000008329d61a98d115cf7d96b8f4a159794661000000005999000000005999000000000000000000000000000000000000N190200000016515987658765 1030015987658765 9999999900099983                  0000000059990000000000000000                                                  00000000                                   0539dd34c971b2e6465143dd33fbe281
62054885312000ISENTO        ANTONIO SILVA                      SP040084          2019021621U  00000008401ca0916362a907ff8f5df5b51ab424f000000005999000000005999000000000000000000000000000000000000N190200000016715987658765 1030015987658765 9999999900099984                  0000000059990000000000000000                                                  00000000                                   89f7bd2da045894a87ff388372fe9e52
62054885312000ISENTO        ANTONIO SILVA                      SP040085          2019021621U  000000085150fa71af27fb23d035b13873c840d7e000000005999000000005999000000000000000000000000000000000000N190200000016915987658765 1030015987658765 9999999900099985                  0000000059990000000000000000                                                  00000000                                   0b89f950fb5bb2d9b118bde79b2f5fcf
62054885312000ISENTO        ANTONIO SILVA                      SP040086          2019021621U  0000000861f40c071ccd82e7ff997284b9b7d644c000000005999000000005999000000000000000000000000000000000000N190200000017115987658765 1030015987658765 9999999900099986                  0000000059990000000000000000                                                  00000000                                   ef5817844144a21c7cd9626cecf32501
62054885312000ISENTO        ANTONIO SILVA                      SP040087          2019021621U  00000008742160c7474bb37829a3ac52766e776f0000000005999000000005999000000000000000000000000000000000000N190200000017315987658765 1030015987658765 9999999900099987                  0000000059990000000000000000                                                  00000000                                   92c81cde54b33676aa7d90cb3be2d50f
62054885312000ISENTO        ANTONIO SILVA                      SP040088          2019021621U  0000000888591a614d15b936ce62a1a4acc54150d000000005999000000005999000000000000000000000000000000000000N190200000017515987658765 1030015987658765 9999999900099988                  0000000059990000000000000000                                                  00000000                                   4c94f75e474616163f3abf999bc00382
62054885312000ISENTO        ANTONIO SILVA                      SP040089          2019021621U  00000008970cb9316d3c47575ba8fc8dfe6be9906000000005999000000005999000000000000000000000000000000000000N190200000017715987658765 1030015987658765 9999999900099989                  0000000059990000000000000000                                                  00000000                                   09e0e142346b2ebbd85b78b34e735963
62054885312000ISENTO        ANTONIO SILVA                      SP040090          2019021621U  0000000903fa015eea765391762a18726f6613443000000005999000000005999000000000000000000000000000000000000N190200000017915987658765 1030015987658765 9999999900099990                  0000000059990000000000000000                                                  00000000                                   18c64a4fbe4717fa54829229d1b08dbf
62054885312000ISENTO        ANTONIO SILVA                      SP040091          2019021621U  000000091e062d6997aaec6ce6cdeed62d5be8de2000000005999000000005999000000000000000000000000000000000000N190200000018115987658765 1030015987658765 9999999900099991                  0000000059990000000000000000                                                  00000000                                   7677c7330ea0059ac903e0019debf4d1
62054885312000ISENTO        ANTONIO SILVA                      SP040092          2019021621U  000000092728683d58843000c1bf2509674dcbc6c000000005999000000005999000000000000000000000000000000000000N190200000018315987658765 1030015987658765 9999999900099992                  0000000059990000000000000000                                                  00000000                                   c522fe5a58dd9deb1e2e5ca1573b6900
62054885312000ISENTO        ANTONIO SILVA                      SP040093          2019021621U  00000009398a5aa4645823d9b5fc6117c9bedbe49000000005999000000005999000000000000000000000000000000000000N190200000018515987658765 1030015987658765 9999999900099993                  0000000059990000000000000000                                                  00000000                                   3c79fc1a1fae5c32d89d72f7547214c1
62054885312000ISENTO        ANTONIO SILVA                      SP040094          2019021621U  0000000947530dfd9fd35b31346c0cfec0bfa3a7f000000005999000000005999000000000000000000000000000000000000N190200000018715987658765 1030015987658765 9999999900099994                  0000000059990000000000000000                                                  00000000                                   04fd3369af2c587126a49c51fa0e5e13
62054885312000ISENTO        ANTONIO SILVA                      SP040095          2019021621U  000000095a120945ba247a98e44c757ccc41b668a000000005999000000005999000000000000000000000000000000000000N190200000018915987658765 1030015987658765 9999999900099995                  0000000059990000000000000000                                                  00000000                                   8526926a5ecaa9c242707e3f55a68f33
62054885312000ISENTO        ANTONIO SILVA                      SP040096          2019021621U  000000096b8f3ef24398111fe55538bd53a367bdd000000005999000000005999000000000000000000000000000000000000N190200000019115987658765 1030015987658765 9999999900099996                  0000000059990000000000000000                                                  00000000                                   4fc81a5201804187754d0fc7e6958c28
62054885312000ISENTO        ANTONIO SILVA                      SP040097          2019021621U  00000009717343b99003f00b40df158952b756caf000000005999000000005999000000000000000000000000000000000000N190200000019315987658765 1030015987658765 9999999900099997                  0000000059990000000000000000                                                  00000000                                   4279db7bf407ccb65a5624e9a4ad3cb5
62054885312000ISENTO        ANTONIO SILVA                      SP040098          2019021621U  000000098e0df5998c611c54442548e28676899a6000000005999000000005999000000000000000000000000000000000000N190200000019515987658765 1030015987658765 9999999900099998                  0000000059990000000000000000                                                  00000000                                   c06c14426c12bf375c918c2bb904602e
62054885312000ISENTO        ANTONIO SILVA                      SP040099          2019021621U  000000099c936f8179e8d9cfff2b7ca7c7c2a091a000000005999000000005999000000000000000000000000000000000000N190200000019715987658765 1030015987658765 9999999900099999                  0000000059990000000000000000                                                  00000000                                   f07f81dd794eddb0cac7736c1b08d4cc
62054885312000ISENTO        ANTONIO SILVA                      SP0400100         2019021621U  0000001007ce19e06a7b2b29eae5cfd8cedc7e146000000005999000000005999000000000000000000000000000000000000N190200000019915987658765 1030015987658765 99999999000999100                 0000000059990000000000000000                                                  00000000                                   12de2fd1d515d6fa69f29c34603fb6eb
62054885312000ISENTO        ANTONIO SILVA                      SP0400101         2019021621U  000000101c436d3187d3b4e99937e3fcc5e74be76000000005999000000005999000000000000000000000000000000000000N190200000020115987658765 1030015987658765 99999999000999101                 0000000059990000000000000000                                                  00000000                                   cadc0ea4cf699007106b1b783aca4ff8
62054885312000ISENTO        ANTONIO SILVA                      SP0400102         2019021621U  000000102662e98e5c6e8f465585868e30c9fe440000000005999000000005999000000000000000000000000000000000000N190200000020315987658765 1030015987658765 99999999000999102                 0000000059990000000000000000                                                  00000000                                   ad436504be76cb118c2f2a1221532ecd
62054885312000ISENTO        ANTONIO SILVA                      SP0400103         2019021621U  000000103546b8b90f181af89cbded32e79f65ffe000000005999000000005999000000000000000000000000000000000000N190200000020515987658765 1030015987658765 99999999000999103                 0000000059990000000000000000                                                  00000000                                   c5506d62aa509f125f7eba2e2f76088b
62054885312000ISENTO        ANTONIO SILVA                      SP0400104         2019021621U  0000001047e39d49970c3f1ac10332c48d43db60f000000005999000000005999000000000000000000000000000000000000N190200000020715987658765 1030015987658765 99999999000999104                 0000000059990000000000000000                                                  00000000                                   c617381a2c95c0f82d7546a272ef38a1
62054885312000ISENTO        ANTONIO SILVA                      SP0400105         2019021621U  00000010514d93aa04ba1d787aa5a73639d97ba8a000000005999000000005999000000000000000000000000000000000000N190200000020915987658765 1030015987658765 99999999000999105                 0000000059990000000000000000                                                  00000000                                   3a11834a839d7847adb2d6231cdbeecd
62054885312000ISENTO        ANTONIO SILVA                      SP0400106         2019021621U  0000001068c6407245a63dc483315dd8202512311000000005999000000005999000000000000000000000000000000000000N190200000021115987658765 1030015987658765 99999999000999106                 0000000059990000000000000000                                                  00000000                                   36daffde54f4f287e6b6cd05055be81f
62054885312000ISENTO        ANTONIO SILVA                      SP0400107         2019021621U  000000107b494be1ce829e28b20677205eaf2b93d000000005999000000005999000000000000000000000000000000000000N190200000021315987658765 1030015987658765 99999999000999107                 0000000059990000000000000000                                                  00000000                                   616ff05b5f84c551b2b5a1e8b75ed34c
62054885312000ISENTO        ANTONIO SILVA                      SP0400108         2019021621U  000000108e60e28da59c074f69a08ce718b687559000000005999000000005999000000000000000000000000000000000000N190200000021515987658765 1030015987658765 99999999000999108                 0000000059990000000000000000                                                  00000000                                   692c27251238160f395b849e77607936
62054885312000ISENTO        ANTONIO SILVA                      SP0400109         2019021621U  000000109009f8d6fc0ae2ef0fea2282a8f2f9eb1000000005999000000005999000000000000000000000000000000000000N190200000021715987658765 1030015987658765 99999999000999109                 0000000059990000000000000000                                                  00000000                                   4c00ba36b06bba39090daa444cda9ad4
62054885312000ISENTO        ANTONIO SILVA                      SP0400110         2019021621U  00000011015c20e7700453355c792064f0aa7d5af000000005999000000005999000000000000000000000000000000000000N190200000021915987658765 1030015987658765 99999999000999110                 0000000059990000000000000000                                                  00000000                                   9e913e5b6031beb725fae8ca30be7ed8
62054885312000ISENTO        ANTONIO SILVA                      SP0400111         2019021621U  00000011152f145695a3fc058a0df166ba96f3c3a000000005999000000005999000000000000000000000000000000000000N190200000022115987658765 1030015987658765 99999999000999111                 0000000059990000000000000000                                                  00000000                                   b893f365d888c7654a958517af2623fb
62054885312000ISENTO        ANTONIO SILVA                      SP0400112         2019021621U  000000112624c8b77db5192febb0f01466ee3eedc000000005999000000005999000000000000000000000000000000000000N190200000022315987658765 1030015987658765 99999999000999112                 0000000059990000000000000000                                                  00000000                                   bc9f494baa5af9b2b098cbc565d0ec5b
62054885312000ISENTO        ANTONIO SILVA                      SP0400113         2019021621U  000000113ccd5a11b368a304742e1251c73aa5311000000005999000000005999000000000000000000000000000000000000N190200000022515987658765 1030015987658765 99999999000999113                 0000000059990000000000000000                                                  00000000                                   997304c7e1b4adbb0d23789088e1810c
62054885312000ISENTO        ANTONIO SILVA                      SP0400114         2019021621U  0000001145986b59babed3dbc119779ff0ef31ceb000000005999000000005999000000000000000000000000000000000000N190200000022715987658765 1030015987658765 99999999000999114                 0000000059990000000000000000                                                  00000000                                   7746c60d165dbd6cffcf99aeb7138310
62054885312000ISENTO        ANTONIO SILVA                      SP0400115         2019021621U  000000115baba774bb839cb87f5bc1e0162fef0de000000005999000000005999000000000000000000000000000000000000N190200000022915987658765 1030015987658765 99999999000999115                 0000000059990000000000000000                                                  00000000                                   c179f3e3616f403a425db3980d720ffc
62054885312000ISENTO        ANTONIO SILVA                      SP0400116         2019021621U  0000001165615bcb05dd0fbb6ecd45c12896ed25f000000005999000000005999000000000000000000000000000000000000N190200000023115987658765 1030015987658765 99999999000999116                 0000000059990000000000000000                                                  00000000                                   abdfff645b150763bab713c22a97ce6e
62054885312000ISENTO        ANTONIO SILVA                      SP0400117         2019021621U  0000001173264214964163199e9b170a8818881c7000000005999000000005999000000000000000000000000000000000000N190200000023315987658765 1030015987658765 99999999000999117                 0000000059990000000000000000                                                  00000000                                   c0a3c49d326bf4887795cfa6e59ba939
62054885312000ISENTO        ANTONIO SILVA                      SP0400118         2019021621U  000000118b31d09212ac269df9ca878ce6807c073000000005999000000005999000000000000000000000000000000000000N190200000023515987658765 1030015987658765 99999999000999118                 0000000059990000000000000000                                                  00000000                                   dea38a728280a1a2f6895dca250008d4
62054885312000ISENTO        ANTONIO SILVA                      SP0400119         2019021621U  000000119df8c65542ee6d8bf3f1890cf51b463b3000000005999000000005999000000000000000000000000000000000000N190200000023715987658765 1030015987658765 99999999000999119                 0000000059990000000000000000                                                  00000000                                   b4abe2872954be83ac245622f749e3b6
62054885312000ISENTO        ANTONIO SILVA                      SP0400120         2019021621U  000000120cdcb87a85eb9634eeb6ebdf2fa5cffda000000005999000000005999000000000000000000000000000000000000N190200000023915987658765 1030015987658765 99999999000999120                 0000000059990000000000000000                                                  00000000                                   1e78f48a936bab3aaa75548c26690f43
62054885312000ISENTO        ANTONIO SILVA                      SP0400121         2019021621U  0000001218b1bf80c11251b8bbdb99a3d11b0fe48000000005999000000005999000000000000000000000000000000000000N190200000024115987658765 1030015987658765 99999999000999121                 0000000059990000000000000000                                                  00000000                                   8aec1a79cbcf54e7067edebb32c84b0b
62054885312000ISENTO        ANTONIO SILVA                      SP0400122         2019021621U  00000012259c1029abc27e3ef41cd52d653523388000000005999000000005999000000000000000000000000000000000000N190200000024315987658765 1030015987658765 99999999000999122                 0000000059990000000000000000                                                  00000000                                   bcd90f5beff945f843e373db03457fea
62054885312000ISENTO        ANTONIO SILVA                      SP0400123         2019021621U  00000012344e321b448d44515c66bba1abd5adeb0000000005999000000005999000000000000000000000000000000000000N190200000024515987658765 1030015987658765 99999999000999123                 0000000059990000000000000000                                                  00000000                                   0f619a01a6e972112ca6c2f07d1fc76f
62054885312000ISENTO        ANTONIO SILVA                      SP0400124         2019021621U  00000012472049593070f9ec788ce5fc1dd7e201a000000005999000000005999000000000000000000000000000000000000N190200000024715987658765 1030015987658765 99999999000999124                 0000000059990000000000000000                                                  00000000                                   c37ef490546c4be6e0168422285013d8
62054885312000ISENTO        ANTONIO SILVA                      SP0400125         2019021621U  00000012585327aff51717f6e09af1cee46ea97f0000000005999000000005999000000000000000000000000000000000000N190200000024915987658765 1030015987658765 99999999000999125                 0000000059990000000000000000                                                  00000000                                   64683a62c93caf20f4cd426ba9b21814
62054885312000ISENTO        ANTONIO SILVA                      SP0400126         2019021621U  000000126ccd12776a952fb053904f2008cc326d7000000005999000000005999000000000000000000000000000000000000N190200000025115987658765 1030015987658765 99999999000999126                 0000000059990000000000000000                                                  00000000                                   1ad793363315b79d88bec719c1213dab
62054885312000ISENTO        ANTONIO SILVA                      SP0400127         2019021621U  000000127dddda025ddc08cab2e8da97c5a5e4d50000000005999000000005999000000000000000000000000000000000000N190200000025315987658765 1030015987658765 99999999000999127                 0000000059990000000000000000                                                  00000000                                   ec45c7a1355560eca328a7a5bf581ae3
62054885312000ISENTO        ANTONIO SILVA                      SP0400128         2019021621U  000000128bde38f1470e6cd8db3e2ffa997ee41d6000000005999000000005999000000000000000000000000000000000000N190200000025515987658765 1030015987658765 99999999000999128                 0000000059990000000000000000                                                  00000000                                   8e3cb96d98b0cc4042da7b842e3fa839
62054885312000ISENTO        ANTONIO SILVA                      SP0400129         2019021621U  000000129894d34184cf7afc78af286de596a32ad000000005999000000005999000000000000000000000000000000000000N190200000025715987658765 1030015987658765 99999999000999129                 0000000059990000000000000000                                                  00000000                                   aebc0b1072a3d4b63477c9e8026c3435
62054885312000ISENTO        ANTONIO SILVA                      SP0400130         2019021621U  0000001306ba3c9fb9b6ccec1d4841ed7c0bd4ec5000000005999000000005999000000000000000000000000000000000000N190200000025915987658765 1030015987658765 99999999000999130                 0000000059990000000000000000                                                  00000000                                   4d702df6ae0a2789f70cefe550932b27
62054885312000ISENTO        ANTONIO SILVA                      SP0400131         2019021621U  0000001310de4c2915142ba660f033e2e62134269000000005999000000005999000000000000000000000000000000000000N190200000026115987658765 1030015987658765 99999999000999131                 0000000059990000000000000000                                                  00000000                                   3331f10c11305826d886dccaf8f1b949
62054885312000ISENTO        ANTONIO SILVA                      SP0400132         2019021621U  00000013225759b8a71b1dcae610701604eda12cc000000005999000000005999000000000000000000000000000000000000N190200000026315987658765 1030015987658765 99999999000999132                 0000000059990000000000000000                                                  00000000                                   2bdf64bcfd86271073e50a498408ba47
62054885312000ISENTO        ANTONIO SILVA                      SP0400133         2019021621U  000000133abb10ffbf925248198c6538424cbb8eb000000005999000000005999000000000000000000000000000000000000N190200000026515987658765 1030015987658765 99999999000999133                 0000000059990000000000000000                                                  00000000                                   e8c74c6dd20c51fc7eba600d602b5e62
62054885312000ISENTO        ANTONIO SILVA                      SP0400134         2019021621U  000000134ea332ec35236b412861b481f66c5c4d9000000005999000000005999000000000000000000000000000000000000N190200000026715987658765 1030015987658765 99999999000999134                 0000000059990000000000000000                                                  00000000                                   6d02707bf8716fa07c65e8d72c28f0fd
62054885312000ISENTO        ANTONIO SILVA                      SP0400135         2019021621U  000000135dbff45d3e9059659786824b3eb1ddf43000000005999000000005999000000000000000000000000000000000000N190200000026915987658765 1030015987658765 99999999000999135                 0000000059990000000000000000                                                  00000000                                   6e06f6a112a9b404522fb2966cc4e220
62054885312000ISENTO        ANTONIO SILVA                      SP0400136         2019021621U  00000013672f32d2f0e12186b098308718a953712000000005999000000005999000000000000000000000000000000000000N190200000027115987658765 1030015987658765 99999999000999136                 0000000059990000000000000000                                                  00000000                                   02f787593238855c1b7abc26d22fe70b
62054885312000ISENTO        ANTONIO SILVA                      SP0400137         2019021621U  00000013742d5fd4cc66b0c31cce7d566195d4a9c000000005999000000005999000000000000000000000000000000000000N190200000027315987658765 1030015987658765 99999999000999137                 0000000059990000000000000000                                                  00000000                                   ac0be80f2e0f537efbacf7ec5b4a24dc
62054885312000ISENTO        ANTONIO SILVA                      SP0400138         2019021621U  000000138062602dbecf094521c446aa205a66fbd000000005999000000005999000000000000000000000000000000000000N190200000027515987658765 1030015987658765 99999999000999138                 0000000059990000000000000000                                                  00000000                                   d51e552e7edae31200bb2281203e1a5d
62054885312000ISENTO        ANTONIO SILVA                      SP0400139         2019021621U  00000013911e2ebfd7c891dc7c3a16e0f61b0f843000000005999000000005999000000000000000000000000000000000000N190200000027715987658765 1030015987658765 99999999000999139                 0000000059990000000000000000                                                  00000000                                   949222afdbfa600c89b4281fadf469ec
62054885312000ISENTO        ANTONIO SILVA                      SP0400140         2019021621U  00000014023a47aa912e0901da821b3d9c2edc5e6000000005999000000005999000000000000000000000000000000000000N190200000027915987658765 1030015987658765 99999999000999140                 0000000059990000000000000000                                                  00000000                                   2967150185a2e80c2453abb3a7d05f38
62054885312000ISENTO        ANTONIO SILVA                      SP0400141         2019021621U  000000141be022b1de987a11796d0686ab97c023d000000005999000000005999000000000000000000000000000000000000N190200000028115987658765 1030015987658765 99999999000999141                 0000000059990000000000000000                                                  00000000                                   5f5712bc18b4e0add4a23f50852716ff
62054885312000ISENTO        ANTONIO SILVA                      SP0400142         2019021621U  0000001420f264e1e0c824b398b937336401a3630000000005999000000005999000000000000000000000000000000000000N190200000028315987658765 1030015987658765 99999999000999142                 0000000059990000000000000000                                                  00000000                                   708f759486d9ef047eeb8edd1b7fcf2b
62054885312000ISENTO        ANTONIO SILVA                      SP0400143         2019021621U  000000143bd6b2ca7f90dcf8aafeac1b2b76d4210000000005999000000005999000000000000000000000000000000000000N190200000028515987658765 1030015987658765 99999999000999143                 0000000059990000000000000000                                                  00000000                                   eeccad4cd440e22475db18a9348ce4e2
62054885312000ISENTO        ANTONIO SILVA                      SP0400144         2019021621U  000000144f3dfb38039a257e01102ae9c1a15a32d000000005999000000005999000000000000000000000000000000000000N190200000028715987658765 1030015987658765 99999999000999144                 0000000059990000000000000000                                                  00000000                                   bf2d31a3091d09decbe9cbd00b5878c3
62054885312000ISENTO        ANTONIO SILVA                      SP0400145         2019021621U  00000014517695acbb4661f146eeaa2aded35d7c4000000005999000000005999000000000000000000000000000000000000N190200000028915987658765 1030015987658765 99999999000999145                 0000000059990000000000000000                                                  00000000                                   73ca7eefd924d0dfa908e649f0d26c70
62054885312000ISENTO        ANTONIO SILVA                      SP0400146         2019021621U  0000001469c177dcba6102951ada95acfb3745441000000005999000000005999000000000000000000000000000000000000N190200000029115987658765 1030015987658765 99999999000999146                 0000000059990000000000000000                                                  00000000                                   f7420eaa46da1b5a8c9113a9b6756970
62054885312000ISENTO        ANTONIO SILVA                      SP0400147         2019021621U  0000001479b9a7f15f5b4c60e720819a5a122ef34000000005999000000005999000000000000000000000000000000000000N190200000029315987658765 1030015987658765 99999999000999147                 0000000059990000000000000000                                                  00000000                                   fb808a5a4e5f92af630a627e9d8cb4b8
62054885312000ISENTO        ANTONIO SILVA                      SP0400148         2019021621U  00000014821b296adab0e80884708ce19974888cd000000005999000000005999000000000000000000000000000000000000N190200000029515987658765 1030015987658765 99999999000999148                 0000000059990000000000000000                                                  00000000                                   f421529b9cf133c4a32d0e8b16fce8ba
62054885312000ISENTO        ANTONIO SILVA                      SP0400149         2019021621U  0000001493ee2c7704b2a2c1c00eb8d08cc38099d000000005999000000005999000000000000000000000000000000000000N190200000029715987658765 1030015987658765 99999999000999149                 0000000059990000000000000000                                                  00000000                                   06ba85b582ccf486a3ab9fb41a326f23
62054885312000ISENTO        ANTONIO SILVA                      SP0400150         2019021621U  0000001507f8614111143a16655d44021b7769330000000005999000000005999000000000000000000000000000000000000N190200000029915987658765 1030015987658765 99999999000999150                 0000000059990000000000000000                                                  00000000                                   1f33db12edd59b802314394b2e361a49
62054885312000ISENTO        ANTONIO SILVA                      SP0400151         2019021621U  000000151d426e6c5bb0af08497ad54289334c294000000005999000000005999000000000000000000000000000000000000N190200000030115987658765 1030015987658765 99999999000999151                 0000000059990000000000000000                                                  00000000                                   d6585499dedcd35eaa2b4d3b9a7e2d60
62054885312000ISENTO        ANTONIO SILVA                      SP0400152         2019021621U  000000152543c707436ada05f1e94a9e53946590a000000005999000000005999000000000000000000000000000000000000N190200000030315987658765 1030015987658765 99999999000999152                 0000000059990000000000000000                                                  00000000                                   b5b534b233918b5f810e1a9fe33d6424
62054885312000ISENTO        ANTONIO SILVA                      SP0400153         2019021621U  000000153ac41ff35276900f240e0a429c6df6cd8000000005999000000005999000000000000000000000000000000000000N190200000030515987658765 1030015987658765 99999999000999153                 0000000059990000000000000000                                                  00000000                                   aa145d76d5672aaa7e8255c68c039e97
62054885312000ISENTO        ANTONIO SILVA                      SP0400154         2019021621U  000000154a78eca7bd515327685868b9f8da7e0a2000000005999000000005999000000000000000000000000000000000000N190200000030715987658765 1030015987658765 99999999000999154                 0000000059990000000000000000                                                  00000000                                   3096d4b834d4b3a91f6d99e0e14bc0dd
62054885312000ISENTO        ANTONIO SILVA                      SP0400155         2019021621U  0000001557fda4fd248ee2401f92f746b54d059ee000000005999000000005999000000000000000000000000000000000000N190200000030915987658765 1030015987658765 99999999000999155                 0000000059990000000000000000                                                  00000000                                   d64eae52cf8901ad67ef2f01ba5c210f
62054885312000ISENTO        ANTONIO SILVA                      SP0400156         2019021621U  0000001566e13d6abfa8039d1f00631fe437154b2000000005999000000005999000000000000000000000000000000000000N190200000031115987658765 1030015987658765 99999999000999156                 0000000059990000000000000000                                                  00000000                                   5a1274838cba30d8d17b8a3e9f2ddc02
62054885312000ISENTO        ANTONIO SILVA                      SP0400157         2019021621U  00000015779e87b7addec775998e8403781abaa83000000005999000000005999000000000000000000000000000000000000N190200000031315987658765 1030015987658765 99999999000999157                 0000000059990000000000000000                                                  00000000                                   376b8f71b5576088bd820a9b4d73baa9
62054885312000ISENTO        ANTONIO SILVA                      SP0400158         2019021621U  000000158ac0cbc460fffc7fe3345565a85fdbc80000000005999000000005999000000000000000000000000000000000000N190200000031515987658765 1030015987658765 99999999000999158                 0000000059990000000000000000                                                  00000000                                   1695f1d1db46e2a6c721d006998596cd
62054885312000ISENTO        ANTONIO SILVA                      SP0400159         2019021621U  000000159464ee5558925ba9cd21d451c8e1a7996000000005999000000005999000000000000000000000000000000000000N190200000031715987658765 1030015987658765 99999999000999159                 0000000059990000000000000000                                                  00000000                                   3568040b9587115d554cc33b2d2f4127
62054885312000ISENTO        ANTONIO SILVA                      SP0400160         2019021621U  0000001607623e028bfb754cf51ed57fc1c808532000000005999000000005999000000000000000000000000000000000000N190200000031915987658765 1030015987658765 99999999000999160                 0000000059990000000000000000                                                  00000000                                   930541c23489e06ebbc311ca576364b6
62054885312000ISENTO        ANTONIO SILVA                      SP0400161         2019021621U  000000161e36c326e6a36bbecba33f955d499c4f8000000005999000000005999000000000000000000000000000000000000N190200000032115987658765 1030015987658765 99999999000999161                 0000000059990000000000000000                                                  00000000                                   bb175c315c04d0f22ebad11b7293f3fc
62054885312000ISENTO        ANTONIO SILVA                      SP0400162         2019021621U  0000001625fbaeae17ec90f92b79d6bcc79ddcd4f000000005999000000005999000000000000000000000000000000000000N190200000032315987658765 1030015987658765 99999999000999162                 0000000059990000000000000000                                                  00000000                                   b2b186fa2717149423b410698d89937a
62054885312000ISENTO        ANTONIO SILVA                      SP0400163         2019021621U  000000163edbf25b6e19c6b9e728cabb5f8d6b930000000005999000000005999000000000000000000000000000000000000N190200000032515987658765 1030015987658765 99999999000999163                 0000000059990000000000000000                                                  00000000                                   9c4e7fdc1c25ca2b7aa65e17998e8880
62054885312000ISENTO        ANTONIO SILVA                      SP0400164         2019021621U  000000164f9dd1b20c84aaa27217fbae8217aff42000000005999000000005999000000000000000000000000000000000000N190200000032715987658765 1030015987658765 99999999000999164                 0000000059990000000000000000                                                  00000000                                   730f090bcbab99d1e0f757fc722b358b
62054885312000ISENTO        ANTONIO SILVA                      SP0400165         2019021621U  0000001652e91e4f2b61b06ce058f484591947bfa000000005999000000005999000000000000000000000000000000000000N190200000032915987658765 1030015987658765 99999999000999165                 0000000059990000000000000000                                                  00000000                                   719506362657da72261228a7453b2499
62054885312000ISENTO        ANTONIO SILVA                      SP0400166         2019021621U  0000001669d8088bdf39ecc8fec3ad0d3523272df000000005999000000005999000000000000000000000000000000000000N190200000033115987658765 1030015987658765 99999999000999166                 0000000059990000000000000000                                                  00000000                                   8a7ebc17709bc497bf5cf64a15767a51
62054885312000ISENTO        ANTONIO SILVA                      SP0400167         2019021621U  0000001678521f3d6e4bd759970ca0f10e6d78918000000005999000000005999000000000000000000000000000000000000N190200000033315987658765 1030015987658765 99999999000999167                 0000000059990000000000000000                                                  00000000                                   8bef3a4ce70538920623ac91eb51df7a
62054885312000ISENTO        ANTONIO SILVA                      SP0400168         2019021621U  00000016807d9f2af64cca97cf6211ccd1a4531c3000000005999000000005999000000000000000000000000000000000000N190200000033515987658765 1030015987658765 99999999000999168                 0000000059990000000000000000                                                  00000000                                   9b743f580cbac65f9fd0bb997af15ff9
62054885312000ISENTO        ANTONIO SILVA                      SP0400169         2019021621U  0000001698129a2b8f7a8db83089ed55154e9e886000000005999000000005999000000000000000000000000000000000000N190200000033715987658765 1030015987658765 99999999000999169                 0000000059990000000000000000                                                  00000000                                   f8efd8390c5c924fa98dbdac52652ff2
62054885312000ISENTO        ANTONIO SILVA                      SP0400170         2019021621U  00000017009f9c7b58deb52963cc2afa4cb21f0f8000000005999000000005999000000000000000000000000000000000000N190200000033915987658765 1030015987658765 99999999000999170                 0000000059990000000000000000                                                  00000000                                   c2f35417688a023ffdae61080c20d044
62054885312000ISENTO        ANTONIO SILVA                      SP0400171         2019021621U  000000171b72c48c316b1daa877cbd2a13a423216000000005999000000005999000000000000000000000000000000000000N190200000034115987658765 1030015987658765 99999999000999171                 0000000059990000000000000000                                                  00000000                                   ec5a61cc86cce566b2242b9e48b46c10
62054885312000ISENTO        ANTONIO SILVA                      SP0400172         2019021621U  000000172ab2ed500a3aaf938872304358d51f7ae000000005999000000005999000000000000000000000000000000000000N190200000034315987658765 1030015987658765 99999999000999172                 0000000059990000000000000000                                                  00000000                                   37da4de53a97477f1a392a51a3634b24
62054885312000ISENTO        ANTONIO SILVA                      SP0400173         2019021621U  0000001731fd461fef965cebf53c1c23229ea826a000000005999000000005999000000000000000000000000000000000000N190200000034515987658765 1030015987658765 99999999000999173                 0000000059990000000000000000                                                  00000000                                   8a786ce175124aac83c1b02f58307070
62054885312000ISENTO        ANTONIO SILVA                      SP0400174         2019021621U  000000174b4d3906e60f025795f64e38c0b644466000000005999000000005999000000000000000000000000000000000000N190200000034715987658765 1030015987658765 99999999000999174                 0000000059990000000000000000                                                  00000000                                   0cfc31397d837439ad60df5c25d0fe1e
62054885312000ISENTO        ANTONIO SILVA                      SP0400175         2019021621U  000000175ce7338e78daa9eb7ead40ddd46074d31000000005999000000005999000000000000000000000000000000000000N190200000034915987658765 1030015987658765 99999999000999175                 0000000059990000000000000000                                                  00000000                                   f551e77b4cb826f6060be85df6c21407
62054885312000ISENTO        ANTONIO SILVA                      SP0400176         2019021621U  0000001760c2a8df87d3afbb7787531f744624d6d000000005999000000005999000000000000000000000000000000000000N190200000035115987658765 1030015987658765 99999999000999176                 0000000059990000000000000000                                                  00000000                                   8bdbf402027b62a4610891975c51700d
62054885312000ISENTO        ANTONIO SILVA                      SP0400177         2019021621U  0000001777c9306fd889da3b9bdf2717c62177bd6000000005999000000005999000000000000000000000000000000000000N190200000035315987658765 1030015987658765 99999999000999177                 0000000059990000000000000000                                                  00000000                                   4dd0b4bd6d0a8c1dc2f70b64df1f30e8
62054885312000ISENTO        ANTONIO SILVA                      SP0400178         2019021621U  0000001785d25f2a2a78d89e196b137cc290a3003000000005999000000005999000000000000000000000000000000000000N190200000035515987658765 1030015987658765 99999999000999178                 0000000059990000000000000000                                                  00000000                                   cc34feb44c379b52ff9df87f6dfab461
62054885312000ISENTO        ANTONIO SILVA                      SP0400179         2019021621U  000000179c4464a18ac083aeb3ce6d0742bf77720000000005999000000005999000000000000000000000000000000000000N190200000035715987658765 1030015987658765 99999999000999179                 0000000059990000000000000000                                                  00000000                                   a190e4664801788055481c3dbbfbb9d6
62054885312000ISENTO        ANTONIO SILVA                      SP0400180         2019021621U  0000001800ee03808aa8db3be645c7e3f09d4c5cc000000005999000000005999000000000000000000000000000000000000N190200000035915987658765 1030015987658765 99999999000999180                 0000000059990000000000000000                                                  00000000                                   3a87d6b3c193a4158e2476ad71d6c8ce
62054885312000ISENTO        ANTONIO SILVA                      SP0400181         2019021621U  000000181fc6221cdcf00079c1465f49fd3ab5b93000000005999000000005999000000000000000000000000000000000000N190200000036115987658765 1030015987658765 99999999000999181                 0000000059990000000000000000                                                  00000000                                   12b0e01e2a7e19cf5b0814836c1a95aa
62054885312000ISENTO        ANTONIO SILVA                      SP0400182         2019021621U  000000182568c310dc13edc125fbd6165a7592fd6000000005999000000005999000000000000000000000000000000000000N190200000036315987658765 1030015987658765 99999999000999182                 0000000059990000000000000000                                                  00000000                                   3f9c97493f033fc8b348c97e4301ad27
62054885312000ISENTO        ANTONIO SILVA                      SP0400183         2019021621U  000000183d6dcc7e070faa538ce01691b8fd22953000000005999000000005999000000000000000000000000000000000000N190200000036515987658765 1030015987658765 99999999000999183                 0000000059990000000000000000                                                  00000000                                   b2618736b9902e3c5616be3ae0c464c8
62054885312000ISENTO        ANTONIO SILVA                      SP0400184         2019021621U  0000001845ef6b284f940739dbf1113c80d468c74000000005999000000005999000000000000000000000000000000000000N190200000036715987658765 1030015987658765 99999999000999184                 0000000059990000000000000000                                                  00000000                                   490727d54e5789717229e266207d30ab
62054885312000ISENTO        ANTONIO SILVA                      SP0400185         2019021621U  000000185818ee3f03ede679fb10e1671b15e4f0f000000005999000000005999000000000000000000000000000000000000N190200000036915987658765 1030015987658765 99999999000999185                 0000000059990000000000000000                                                  00000000                                   6e23353d993029f550b88951b86bee18
62054885312000ISENTO        ANTONIO SILVA                      SP0400186         2019021621U  0000001869c1f0f2ba27ee040da2b0ff90ed22107000000005999000000005999000000000000000000000000000000000000N190200000037115987658765 1030015987658765 99999999000999186                 0000000059990000000000000000                                                  00000000                                   a008a6e015acf5e0deee5acf30081de6
62054885312000ISENTO        ANTONIO SILVA                      SP0400187         2019021621U  00000018756efd6ca4e541bd434e1293b693c4458000000005999000000005999000000000000000000000000000000000000N190200000037315987658765 1030015987658765 99999999000999187                 0000000059990000000000000000                                                  00000000                                   3a2af8c164e1b5ae3b25a04d30d58f3c
62054885312000ISENTO        ANTONIO SILVA                      SP0400188         2019021621U  000000188be8094097902b2613a43d4165eb6a9c9000000005999000000005999000000000000000000000000000000000000N190200000037515987658765 1030015987658765 99999999000999188                 0000000059990000000000000000                                                  00000000                                   3a7e1008ba4883d2e0c526cd1871f4d7
62054885312000ISENTO        ANTONIO SILVA                      SP0400189         2019021621U  00000018949d0057f4441946c2f62cdbd0bcb42c4000000005999000000005999000000000000000000000000000000000000N190200000037715987658765 1030015987658765 99999999000999189                 0000000059990000000000000000                                                  00000000                                   932c6a9da27b30d804592d2e89d74e08
62054885312000ISENTO        ANTONIO SILVA                      SP0400190         2019021621U  0000001908454072fc9279fa17884768ed3e97578000000005999000000005999000000000000000000000000000000000000N190200000037915987658765 1030015987658765 99999999000999190                 0000000059990000000000000000                                                  00000000                                   d590dedfc23a70100cfa74df4c84930e
62054885312000ISENTO        ANTONIO SILVA                      SP0400191         2019021621U  000000191bdc4fdbbf161b404ee37e6eb587b83f1000000005999000000005999000000000000000000000000000000000000N190200000038115987658765 1030015987658765 99999999000999191                 0000000059990000000000000000                                                  00000000                                   b6e973d71844d0e95214b57bbb4df3b8
62054885312000ISENTO        ANTONIO SILVA                      SP0400192         2019021621U  0000001922788d6524200d87fc7ec6401ad651eae000000005999000000005999000000000000000000000000000000000000N190200000038315987658765 1030015987658765 99999999000999192                 0000000059990000000000000000                                                  00000000                                   70c04799ff850c7f20003f66e7faa1b5
62054885312000ISENTO        ANTONIO SILVA                      SP0400193         2019021621U  0000001931cb621c414656fccba0ea4f650ee79ef000000005999000000005999000000000000000000000000000000000000N190200000038515987658765 1030015987658765 99999999000999193                 0000000059990000000000000000                                                  00000000                                   28e3dfee81e49e43c23739315a243f95
62054885312000ISENTO        ANTONIO SILVA                      SP0400194         2019021621U  000000194ead54fd4ed97b5ded3543db75f5ca8ff000000005999000000005999000000000000000000000000000000000000N190200000038715987658765 1030015987658765 99999999000999194                 0000000059990000000000000000                                                  00000000                                   eadd4891fa413fa12b147782158d7984
62054885312000ISENTO        ANTONIO SILVA                      SP0400195         2019021621U  0000001957f688e2d260eae831518e3bed16421bd000000005999000000005999000000000000000000000000000000000000N190200000038915987658765 1030015987658765 99999999000999195                 0000000059990000000000000000                                                  00000000                                   ea7831fb8ffa959ca499eeb31f3849c9
62054885312000ISENTO        ANTONIO SILVA                      SP0400196         2019021621U  000000196c52c0a3752f18984938b62a577cd394f000000005999000000005999000000000000000000000000000000000000N190200000039115987658765 1030015987658765 99999999000999196                 0000000059990000000000000000                                                  00000000                                   3ac40a915f94fc94b3db1317eeabce77
62054885312000ISENTO        ANTONIO SILVA                      SP0400197         2019021621U  000000197e41a22de892485afb854321844cae23b000000005999000000005999000000000000000000000000000000000000N190200000039315987658765 1030015987658765 99999999000999197                 0000000059990000000000000000                                                  00000000                                   fd97c4b58c7f0c146d28aafde707eed5
62054885312000ISENTO        ANTONIO SILVA                      SP0400198         2019021621U  000000198a95cdcadddb1f31ecbc745cc6b7195e7000000005999000000005999000000000000000000000000000000000000N190200000039515987658765 1030015987658765 99999999000999198                 0000000059990000000000000000                                                  00000000                                   944df2ceb9608fb379793662f26f78f7
62054885312000ISENTO        ANTONIO SILVA                      SP0400199         2019021621U  00000019975370c6259c85ead47ea3207a67019f9000000005999000000005999000000000000000000000000000000000000N190200000039715987658765 1030015987658765 99999999000999199                 0000000059990000000000000000                                                  00000000                                   ad542abc53af70f17199dbe2935f67f9
62054885312000ISENTO        ANTONIO SILVA                      SP0400200         2019021621U  000000200fe43b41c4dfb73d9b4f9eb1924df3e27000000005999000000005999000000000000000000000000000000000000N190200000039915987658765 1030015987658765 99999999000999200                 0000000059990000000000000000                                                  00000000                                   8525bf562b0abd4e6a11dce143c0465d
62054885312000ISENTO        ANTONIO SILVA                      SP0400201         2019021621U  000000201194beffe29aa6993441ab86d66255422000000005999000000005999000000000000000000000000000000000000N190200000040115987658765 1030015987658765 99999999000999201                 0000000059990000000000000000                                                  00000000                                   d942772b4084d2536e66ce41f215bb14
62054885312000ISENTO        ANTONIO SILVA                      SP0400202         2019021621U  000000202d4e4a0aed72aea802b30809bd8419273000000005999000000005999000000000000000000000000000000000000N190200000040315987658765 1030015987658765 99999999000999202                 0000000059990000000000000000                                                  00000000                                   1dbb19a272962c6b972148a1eeea4b66
62054885312000ISENTO        ANTONIO SILVA                      SP0400203         2019021621U  00000020383cef0f786462124cf28e8466b06dac3000000005999000000005999000000000000000000000000000000000000N190200000040515987658765 1030015987658765 99999999000999203                 0000000059990000000000000000                                                  00000000                                   070ac2bcc0832c3693e516fd5093fc43
62054885312000ISENTO        ANTONIO SILVA                      SP0400204         2019021621U  0000002046e813591d2e04f738d455a0f6a70a7e3000000005999000000005999000000000000000000000000000000000000N190200000040715987658765 1030015987658765 99999999000999204                 0000000059990000000000000000                                                  00000000                                   7c7347442243e370458c968e0e9dd404
62054885312000ISENTO        ANTONIO SILVA                      SP0400205         2019021621U  0000002053e16b3ccbbe9fb2afa2906b7c2ca91d1000000005999000000005999000000000000000000000000000000000000N190200000040915987658765 1030015987658765 99999999000999205                 0000000059990000000000000000                                                  00000000                                   306d6735b487334aceadc56e61249ede
62054885312000ISENTO        ANTONIO SILVA                      SP0400206         2019021621U  0000002062300f047dc8379e72e9ce788ce275948000000005999000000005999000000000000000000000000000000000000N190200000041115987658765 1030015987658765 99999999000999206                 0000000059990000000000000000                                                  00000000                                   bc990309e60f4e47f3343f0c32bc0651
62054885312000ISENTO        ANTONIO SILVA                      SP0400207         2019021621U  0000002073b5f0e0914f62c2e39c751eb5ce60bc2000000005999000000005999000000000000000000000000000000000000N190200000041315987658765 1030015987658765 99999999000999207                 0000000059990000000000000000                                                  00000000                                   77b3c7a44691e07c411a0e85e1885360
62054885312000ISENTO        ANTONIO SILVA                      SP0400208         2019021621U  0000002089b47b8641c5874854683ca14cdaf577a000000005999000000005999000000000000000000000000000000000000N190200000041515987658765 1030015987658765 99999999000999208                 0000000059990000000000000000                                                  00000000                                   07b3d5538a4e390eb2bdc909f806769d
62054885312000ISENTO        ANTONIO SILVA                      SP0400209         2019021621U  000000209ce254a0cb0689f07db02b999168450c0000000005999000000005999000000000000000000000000000000000000N190200000041715987658765 1030015987658765 99999999000999209                 0000000059990000000000000000                                                  00000000                                   38341b4098c44863c8c14a6f2ee68a28
62054885312000ISENTO        ANTONIO SILVA                      SP0400210         2019021621U  000000210c3d53f1809f3ebc7c018bc0e23fa5636000000005999000000005999000000000000000000000000000000000000N190200000041915987658765 1030015987658765 99999999000999210                 0000000059990000000000000000                                                  00000000                                   45f407e36a955efad8c69b822ce2bc4e
62054885312000ISENTO        ANTONIO SILVA                      SP0400211         2019021621U  0000002112eeda3cec1ca12b3eb5f427a872c3649000000005999000000005999000000000000000000000000000000000000N190200000042115987658765 1030015987658765 99999999000999211                 0000000059990000000000000000                                                  00000000                                   ea025d752c3bdbf7eb16a84460c76f17
62054885312000ISENTO        ANTONIO SILVA                      SP0400212         2019021621U  000000212f49f2ae423924c0ded17ced7f332a967000000005999000000005999000000000000000000000000000000000000N190200000042315987658765 1030015987658765 99999999000999212                 0000000059990000000000000000                                                  00000000                                   fd5edeb2a30186ca2717593bb2dcf58e
62054885312000ISENTO        ANTONIO SILVA                      SP0400213         2019021621U  0000002130ca7b962d8c63ef8a5607967c40f8cc7000000005999000000005999000000000000000000000000000000000000N190200000042515987658765 1030015987658765 99999999000999213                 0000000059990000000000000000                                                  00000000                                   1faeda1aa7873b1069f0c93dd5d16d50
62054885312000ISENTO        ANTONIO SILVA                      SP0400214         2019021621U  000000214f65122bab7f1417af92d9da27c5de956000000005999000000005999000000000000000000000000000000000000N190200000042715987658765 1030015987658765 99999999000999214                 0000000059990000000000000000                                                  00000000                                   0fa6ff464b8696903986673134731e02
62054885312000ISENTO        ANTONIO SILVA                      SP0400215         2019021621U  0000002154121865e2588cbe77bebfabfed195971000000005999000000005999000000000000000000000000000000000000N190200000042915987658765 1030015987658765 99999999000999215                 0000000059990000000000000000                                                  00000000                                   4f879a56a3cc289eb97c7ec184338d53
62054885312000ISENTO        ANTONIO SILVA                      SP0400216         2019021621U  00000021628444ddad7322f636ce3d1795563ad32000000005999000000005999000000000000000000000000000000000000N190200000043115987658765 1030015987658765 99999999000999216                 0000000059990000000000000000                                                  00000000                                   2cb035271397977c67e3db4f7b57f18d
62054885312000ISENTO        ANTONIO SILVA                      SP0400217         2019021621U  0000002170f2c1338e451279d1306b0d8f24b85e1000000005999000000005999000000000000000000000000000000000000N190200000043315987658765 1030015987658765 99999999000999217                 0000000059990000000000000000                                                  00000000                                   179aa9c0bd9bca3e2625c4fdce064137
62054885312000ISENTO        ANTONIO SILVA                      SP0400218         2019021621U  000000218354cf89a66b6f06cb2ffb0e1198a9b44000000005999000000005999000000000000000000000000000000000000N190200000043515987658765 1030015987658765 99999999000999218                 0000000059990000000000000000                                                  00000000                                   0d3c94d829dddb476c5b306300943538
62054885312000ISENTO        ANTONIO SILVA                      SP0400219         2019021621U  000000219ab75375581a4ae0294b26638c38763fe000000005999000000005999000000000000000000000000000000000000N190200000043715987658765 1030015987658765 99999999000999219                 0000000059990000000000000000                                                  00000000                                   1cfba94f7207a8733438951cdab916f9
62054885312000ISENTO        ANTONIO SILVA                      SP0400220         2019021621U  0000002201b3f4cc68328c7ec3da292f241ea1cf1000000005999000000005999000000000000000000000000000000000000N190200000043915987658765 1030015987658765 99999999000999220                 0000000059990000000000000000                                                  00000000                                   b17c4c973a4be50adfed11180cd6c8a3
62054885312000ISENTO        ANTONIO SILVA                      SP0400221         2019021621U  0000002214b7aae235c88840d7531163d2bf7dea2000000005999000000005999000000000000000000000000000000000000N190200000044115987658765 1030015987658765 99999999000999221                 0000000059990000000000000000                                                  00000000                                   a47e0ea74ec40f77e035210f710460a8
62054885312000ISENTO        ANTONIO SILVA                      SP0400222         2019021621U  000000222fc1f3a0f7ce316dffc82a849f4180bac000000005999000000005999000000000000000000000000000000000000N190200000044315987658765 1030015987658765 99999999000999222                 0000000059990000000000000000                                                  00000000                                   9b8246929d9e04b597a1bd96e9a8a0df
62054885312000ISENTO        ANTONIO SILVA                      SP0400223         2019021621U  000000223e9dccb76bf2660e724166c786959f955000000005999000000005999000000000000000000000000000000000000N190200000044515987658765 1030015987658765 99999999000999223                 0000000059990000000000000000                                                  00000000                                   f1eff2a036e6227ad96ea5c43d3410ac
62054885312000ISENTO        ANTONIO SILVA                      SP0400224         2019021621U  0000002247d0ce4962695e8bffee3848f126b52e4000000005999000000005999000000000000000000000000000000000000N190200000044715987658765 1030015987658765 99999999000999224                 0000000059990000000000000000                                                  00000000                                   d9157b8645032742a3d0878ade61f62d
62054885312000ISENTO        ANTONIO SILVA                      SP0400225         2019021621U  00000022507124b0649f78cf0bc24a36a11e758f3000000005999000000005999000000000000000000000000000000000000N190200000044915987658765 1030015987658765 99999999000999225                 0000000059990000000000000000                                                  00000000                                   cc910b05d1df9f4da70246811d1f5521
62054885312000ISENTO        ANTONIO SILVA                      SP0400226         2019021621U  00000022671c65b9520dfbfa5847d4626cb98c850000000005999000000005999000000000000000000000000000000000000N190200000045115987658765 1030015987658765 99999999000999226                 0000000059990000000000000000                                                  00000000                                   bdc41281850e09245b0328e95f88e8cd
62054885312000ISENTO        ANTONIO SILVA                      SP0400227         2019021621U  0000002276ca3f617d6a8d9f404b395ab4ecd1037000000005999000000005999000000000000000000000000000000000000N190200000045315987658765 1030015987658765 99999999000999227                 0000000059990000000000000000                                                  00000000                                   37fcc50a63c081d6e74f06b799798199
62054885312000ISENTO        ANTONIO SILVA                      SP0400228         2019021621U  000000228d34daea6bbd2f89a2f2a23037926d831000000005999000000005999000000000000000000000000000000000000N190200000045515987658765 1030015987658765 99999999000999228                 0000000059990000000000000000                                                  00000000                                   3479170133c059cb1ab9dd7dd2d3314c
62054885312000ISENTO        ANTONIO SILVA                      SP0400229         2019021621U  0000002293bf83d6c075fba10bdcab2a51accc97a000000005999000000005999000000000000000000000000000000000000N190200000045715987658765 1030015987658765 99999999000999229                 0000000059990000000000000000                                                  00000000                                   10c6083fea27ab4e6897d134596a6b9e
62054885312000ISENTO        ANTONIO SILVA                      SP0400230         2019021621U  000000230791a5c3691a663287a198383bf90483b000000005999000000005999000000000000000000000000000000000000N190200000045915987658765 1030015987658765 99999999000999230                 0000000059990000000000000000                                                  00000000                                   d0e1bf463f2f75df14ec712f65a19c67
62054885312000ISENTO        ANTONIO SILVA                      SP0400231         2019021621U  00000023159707352156b07debb875af72b9ba7da000000005999000000005999000000000000000000000000000000000000N190200000046115987658765 1030015987658765 99999999000999231                 0000000059990000000000000000                                                  00000000                                   5776c5787f391c4fbc85c9b3c3c76ca7
62054885312000ISENTO        ANTONIO SILVA                      SP0400232         2019021621U  000000232c6465d43e5f3b43c612ccac1c561ffcd000000005999000000005999000000000000000000000000000000000000N190200000046315987658765 1030015987658765 99999999000999232                 0000000059990000000000000000                                                  00000000                                   40fd621603793544b0dd6d3ca7644425
62054885312000ISENTO        ANTONIO SILVA                      SP0400233         2019021621U  00000023338707995fefcd306922df7227b187138000000005999000000005999000000000000000000000000000000000000N190200000046515987658765 1030015987658765 99999999000999233                 0000000059990000000000000000                                                  00000000                                   08ba735a16a429c0ec43036e19d6356f
62054885312000ISENTO        ANTONIO SILVA                      SP0400234         2019021621U  000000234b6fba193ad29a2ef67d49b1a94ea3367000000005999000000005999000000000000000000000000000000000000N190200000046715987658765 1030015987658765 99999999000999234                 0000000059990000000000000000                                                  00000000                                   8830bf3143c3c7162d496b77d4346854
