62054885312000ISENTO        ANTONIO SILVA                      RUA CENTRAL                                  00023AP 23          18010080CENTRO         Sorocaba                      SP15987658765 1           15987658765   2019021621U  0000000013552205     5699b39b3308f98599e8c52b26aabde4
62054885312000ISENTO        ANTONIO SILVA                      RUA CENTRAL                                  00023AP 23          18010080CENTRO         Sorocaba                      SP15987658765 2           15987658765   2019021621U  0000000023552205     e37af8793c541666894314d191671202
62054885312000ISENTO        ANTONIO SILVA                      RUA CENTRAL                                  00023AP 23          18010080CENTRO         Sorocaba                      SP15987658765 3           15987658765   2019021621U  0000000033552205     45528d81e9d1b85604d8aab51b227103
62054885312000ISENTO        ANTONIO SILVA                      RUA CENTRAL                                  00023AP 23          18010080CENTRO         Sorocaba                      SP15987658765 4           15987658765   2019021621U  0000000043552205     9378f5b35cfe790f483d2c83a8325ad9
62054885312000ISENTO        ANTONIO SILVA                      RUA CENTRAL                                  00023AP 23          18010080CENTRO         Sorocaba                      SP15987658765 5           15987658765   2019021621U  0000000053552205     2bb4c0a69be0501fa8726b5739437933
62054885312000ISENTO        ANTONIO SILVA                      RUA CENTRAL                                  00023AP 23          18010080CENTRO         Sorocaba                      SP15987658765 6           15987658765   2019021621U  0000000063552205     10e0b36ab8d6edae3fad6a2ebf122b6f
62054885312000ISENTO        ANTONIO SILVA                      RUA CENTRAL                                  00023AP 23          18010080CENTRO         Sorocaba                      SP15987658765 7           15987658765   2019021621U  0000000073552205     2c673c1c9add2da5fc5b12d77921fc1e
62054885312000ISENTO        ANTONIO SILVA                      RUA CENTRAL                                  00023AP 23          18010080CENTRO         Sorocaba                      SP15987658765 8           15987658765   2019021621U  0000000083552205     da6544994e739810cf0b5e36b129e193
62054885312000ISENTO        ANTONIO SILVA                      RUA CENTRAL                                  00023AP 23          18010080CENTRO         Sorocaba                      SP15987658765 9           15987658765   2019021621U  0000000093552205     d84d815e5b61d107a114fe25a66afe21
62054885312000ISENTO        ANTONIO SILVA                      RUA CENTRAL                                  00023AP 23          18010080CENTRO         Sorocaba                      SP15987658765 10          15987658765   2019021621U  0000000103552205     3ab79c9186bf6d09c359dbf14cfeaa30
62054885312000ISENTO        ANTONIO SILVA                      RUA CENTRAL                                  00023AP 23          18010080CENTRO         Sorocaba                      SP15987658765 11          15987658765   2019021621U  0000000113552205     7d273a39b66c2a2b90bb9a0ec6453ffa
62054885312000ISENTO        ANTONIO SILVA                      RUA CENTRAL                                  00023AP 23          18010080CENTRO         Sorocaba                      SP15987658765 12          15987658765   2019021621U  0000000123552205     1c3bf6227435e2dddb32fcc14e3397b4
62054885312000ISENTO        ANTONIO SILVA                      RUA CENTRAL                                  00023AP 23          18010080CENTRO         Sorocaba                      SP15987658765 13          15987658765   2019021621U  0000000133552205     7d8bbf7b0c053ef1bdd27972b883349d
62054885312000ISENTO        ANTONIO SILVA                      RUA CENTRAL                                  00023AP 23          18010080CENTRO         Sorocaba                      SP15987658765 14          15987658765   2019021621U  0000000143552205     824ef66b4ec17c5db1920c36f16ab567
62054885312000ISENTO        ANTONIO SILVA                      RUA CENTRAL                                  00023AP 23          18010080CENTRO         Sorocaba                      SP15987658765 15          15987658765   2019021621U  0000000153552205     4ab4906eb6651e3d86d8671e57ba5e13
62054885312000ISENTO        ANTONIO SILVA                      RUA CENTRAL                                  00023AP 23          18010080CENTRO         Sorocaba                      SP15987658765 16          15987658765   2019021621U  0000000163552205     0ec5b13c1d6085f7c59825de79d534c8
62054885312000ISENTO        ANTONIO SILVA                      RUA CENTRAL                                  00023AP 23          18010080CENTRO         Sorocaba                      SP15987658765 17          15987658765   2019021621U  0000000173552205     213acdfa1e1b3efb22c665bb1044491f
62054885312000ISENTO        ANTONIO SILVA                      RUA CENTRAL                                  00023AP 23          18010080CENTRO         Sorocaba                      SP15987658765 18          15987658765   2019021621U  0000000183552205     b11d4df5c4f92285cecde73aa31cee01
62054885312000ISENTO        ANTONIO SILVA                      RUA CENTRAL                                  00023AP 23          18010080CENTRO         Sorocaba                      SP15987658765 19          15987658765   2019021621U  0000000193552205     cb7ecd253270122aa32517c15f9642fb
62054885312000ISENTO        ANTONIO SILVA                      RUA CENTRAL                                  00023AP 23          18010080CENTRO         Sorocaba                      SP15987658765 20          15987658765   2019021621U  0000000203552205     ad8e6b4e18c8cde4979c4196df7e4199
62054885312000ISENTO        ANTONIO SILVA                      RUA CENTRAL                                  00023AP 23          18010080CENTRO         Sorocaba                      SP15987658765 21          15987658765   2019021621U  0000000213552205     414b80c7bb52a84eee2e0b10077fac2a
62054885312000ISENTO        ANTONIO SILVA                      RUA CENTRAL                                  00023AP 23          18010080CENTRO         Sorocaba                      SP15987658765 22          15987658765   2019021621U  0000000223552205     ca90acadc3768cc9a9dcaab6573c7eae
62054885312000ISENTO        ANTONIO SILVA                      RUA CENTRAL                                  00023AP 23          18010080CENTRO         Sorocaba                      SP15987658765 23          15987658765   2019021621U  0000000233552205     f43ce6d82dd6a93589ee727f1c2a709e
62054885312000ISENTO        ANTONIO SILVA                      RUA CENTRAL                                  00023AP 23          18010080CENTRO         Sorocaba                      SP15987658765 24          15987658765   2019021621U  0000000243552205     41bfb3316b05db57e7df6ddc1ff968be
62054885312000ISENTO        ANTONIO SILVA                      RUA CENTRAL                                  00023AP 23          18010080CENTRO         Sorocaba                      SP15987658765 25          15987658765   2019021621U  0000000253552205     51f8f273a916aae91b32349e4f62b20b
62054885312000ISENTO        ANTONIO SILVA                      RUA CENTRAL                                  00023AP 23          18010080CENTRO         Sorocaba                      SP15987658765 26          15987658765   2019021621U  0000000263552205     4389979fef34a198deaed318f8667a5a
62054885312000ISENTO        ANTONIO SILVA                      RUA CENTRAL                                  00023AP 23          18010080CENTRO         Sorocaba                      SP15987658765 27          15987658765   2019021621U  0000000273552205     b93d809543afc3b0a99168f871080a26
62054885312000ISENTO        ANTONIO SILVA                      RUA CENTRAL                                  00023AP 23          18010080CENTRO         Sorocaba                      SP15987658765 28          15987658765   2019021621U  0000000283552205     83fdc27731c81eceb4634e2d0106990d
62054885312000ISENTO        ANTONIO SILVA                      RUA CENTRAL                                  00023AP 23          18010080CENTRO         Sorocaba                      SP15987658765 29          15987658765   2019021621U  0000000293552205     4b14a0f72d5833a2175bbe83af5b728e
62054885312000ISENTO        ANTONIO SILVA                      RUA CENTRAL                                  00023AP 23          18010080CENTRO         Sorocaba                      SP15987658765 30          15987658765   2019021621U  0000000303552205     f175f3cca0c296bd1fa8828a12726a4e
62054885312000ISENTO        ANTONIO SILVA                      RUA CENTRAL                                  00023AP 23          18010080CENTRO         Sorocaba                      SP15987658765 31          15987658765   2019021621U  0000000313552205     2bcb77d6fdcb01ee277f4a2c49bc56c7
62054885312000ISENTO        ANTONIO SILVA                      RUA CENTRAL                                  00023AP 23          18010080CENTRO         Sorocaba                      SP15987658765 32          15987658765   2019021621U  0000000323552205     33c0af26975e24ca4586e27c311f583d
62054885312000ISENTO        ANTONIO SILVA                      RUA CENTRAL                                  00023AP 23          18010080CENTRO         Sorocaba                      SP15987658765 33          15987658765   2019021621U  0000000333552205     856ed0abdcaa4d15013f704f70f9159b
62054885312000ISENTO        ANTONIO SILVA                      RUA CENTRAL                                  00023AP 23          18010080CENTRO         Sorocaba                      SP15987658765 34          15987658765   2019021621U  0000000343552205     fc79b42bfee1523f37cb7369359243b2
62054885312000ISENTO        ANTONIO SILVA                      RUA CENTRAL                                  00023AP 23          18010080CENTRO         Sorocaba                      SP15987658765 35          15987658765   2019021621U  0000000353552205     de210ac7f6ba842f9f67f5e1539064bb
62054885312000ISENTO        ANTONIO SILVA                      RUA CENTRAL                                  00023AP 23          18010080CENTRO         Sorocaba                      SP15987658765 36          15987658765   2019021621U  0000000363552205     0e7fda82eecf3055faa59fa949a7ee16
62054885312000ISENTO        ANTONIO SILVA                      RUA CENTRAL                                  00023AP 23          18010080CENTRO         Sorocaba                      SP15987658765 37          15987658765   2019021621U  0000000373552205     cbe7d6b011b70b6629e30b1d1279ff67
62054885312000ISENTO        ANTONIO SILVA                      RUA CENTRAL                                  00023AP 23          18010080CENTRO         Sorocaba                      SP15987658765 38          15987658765   2019021621U  0000000383552205     900891f8e3866b623e070b733c9cf02d
62054885312000ISENTO        ANTONIO SILVA                      RUA CENTRAL                                  00023AP 23          18010080CENTRO         Sorocaba                      SP15987658765 39          15987658765   2019021621U  0000000393552205     e87339c5456ecd79fc64c0657921d65d
62054885312000ISENTO        ANTONIO SILVA                      RUA CENTRAL                                  00023AP 23          18010080CENTRO         Sorocaba                      SP15987658765 40          15987658765   2019021621U  0000000403552205     816e703b62ab0145ea4707c6e6d05fb1
62054885312000ISENTO        ANTONIO SILVA                      RUA CENTRAL                                  00023AP 23          18010080CENTRO         Sorocaba                      SP15987658765 41          15987658765   2019021621U  0000000413552205     764991e5677d1b1c2f42a7c3187d6833
62054885312000ISENTO        ANTONIO SILVA                      RUA CENTRAL                                  00023AP 23          18010080CENTRO         Sorocaba                      SP15987658765 42          15987658765   2019021621U  0000000423552205     1ff36334dccb493264f8ebd0f398739f
62054885312000ISENTO        ANTONIO SILVA                      RUA CENTRAL                                  00023AP 23          18010080CENTRO         Sorocaba                      SP15987658765 43          15987658765   2019021621U  0000000433552205     b5fff8cf38f56e5dce09f2b2ea84543a
62054885312000ISENTO        ANTONIO SILVA                      RUA CENTRAL                                  00023AP 23          18010080CENTRO         Sorocaba                      SP15987658765 44          15987658765   2019021621U  0000000443552205     d831334c89cfc45446cf205c21636dbd
62054885312000ISENTO        ANTONIO SILVA                      RUA CENTRAL                                  00023AP 23          18010080CENTRO         Sorocaba                      SP15987658765 45          15987658765   2019021621U  0000000453552205     1b74f2baf03e46c8abe8b309405c0a8f
62054885312000ISENTO        ANTONIO SILVA                      RUA CENTRAL                                  00023AP 23          18010080CENTRO         Sorocaba                      SP15987658765 46          15987658765   2019021621U  0000000463552205     cbfd14130eddc1812dcfc5af9e91d19a
62054885312000ISENTO        ANTONIO SILVA                      RUA CENTRAL                                  00023AP 23          18010080CENTRO         Sorocaba                      SP15987658765 47          15987658765   2019021621U  0000000473552205     a5c9f64a188113e0b94be8f2d0d63086
62054885312000ISENTO        ANTONIO SILVA                      RUA CENTRAL                                  00023AP 23          18010080CENTRO         Sorocaba                      SP15987658765 48          15987658765   2019021621U  0000000483552205     8528fdd285c330f4c50a94380ec6617a
62054885312000ISENTO        ANTONIO SILVA                      RUA CENTRAL                                  00023AP 23          18010080CENTRO         Sorocaba                      SP15987658765 49          15987658765   2019021621U  0000000493552205     7d6b577ef378e54607e102a6dec75eb7
62054885312000ISENTO        ANTONIO SILVA                      RUA CENTRAL                                  00023AP 23          18010080CENTRO         Sorocaba                      SP15987658765 50          15987658765   2019021621U  0000000503552205     42aecd18bd8cc309f518e6068ac8bdb7
62054885312000ISENTO        ANTONIO SILVA                      RUA CENTRAL                                  00023AP 23          18010080CENTRO         Sorocaba                      SP15987658765 51          15987658765   2019021621U  0000000513552205     762902dc70a81fc34b9a3fc6822421ba
62054885312000ISENTO        ANTONIO SILVA                      RUA CENTRAL                                  00023AP 23          18010080CENTRO         Sorocaba                      SP15987658765 52          15987658765   2019021621U  0000000523552205     39f884a80cb884e706dc913bac408c5c
62054885312000ISENTO        ANTONIO SILVA                      RUA CENTRAL                                  00023AP 23          18010080CENTRO         Sorocaba                      SP15987658765 53          15987658765   2019021621U  0000000533552205     768f80c20ba320c3d6225f3627c813aa
62054885312000ISENTO        ANTONIO SILVA                      RUA CENTRAL                                  00023AP 23          18010080CENTRO         Sorocaba                      SP15987658765 54          15987658765   2019021621U  0000000543552205     43ff1d210ac1e852d6c64e74101f0833
62054885312000ISENTO        ANTONIO SILVA                      RUA CENTRAL                                  00023AP 23          18010080CENTRO         Sorocaba                      SP15987658765 55          15987658765   2019021621U  0000000553552205     bcc41db139f210605ce2a561236d752a
62054885312000ISENTO        ANTONIO SILVA                      RUA CENTRAL                                  00023AP 23          18010080CENTRO         Sorocaba                      SP15987658765 56          15987658765   2019021621U  0000000563552205     8fb10341b8bd9372eb41bfd888a0da32
62054885312000ISENTO        ANTONIO SILVA                      RUA CENTRAL                                  00023AP 23          18010080CENTRO         Sorocaba                      SP15987658765 57          15987658765   2019021621U  0000000573552205     ce1d8d8160280f3da040cbaae36476cf
62054885312000ISENTO        ANTONIO SILVA                      RUA CENTRAL                                  00023AP 23          18010080CENTRO         Sorocaba                      SP15987658765 58          15987658765   2019021621U  0000000583552205     06c372a5008f2637e927f837fd876169
62054885312000ISENTO        ANTONIO SILVA                      RUA CENTRAL                                  00023AP 23          18010080CENTRO         Sorocaba                      SP15987658765 59          15987658765   2019021621U  0000000593552205     851de6dc167f0c3943e00fbcca09c0ae
62054885312000ISENTO        ANTONIO SILVA                      RUA CENTRAL                                  00023AP 23          18010080CENTRO         Sorocaba                      SP15987658765 60          15987658765   2019021621U  0000000603552205     41abf25d1297557fe0b0900eef2a17e2
62054885312000ISENTO        ANTONIO SILVA                      RUA CENTRAL                                  00023AP 23          18010080CENTRO         Sorocaba                      SP15987658765 61          15987658765   2019021621U  0000000613552205     53989832cfcba7d4a8ecd37b3a6c55fa
62054885312000ISENTO        ANTONIO SILVA                      RUA CENTRAL                                  00023AP 23          18010080CENTRO         Sorocaba                      SP15987658765 62          15987658765   2019021621U  0000000623552205     4354f340ebd21d8b2b228a8a2fbc3bbf
62054885312000ISENTO        ANTONIO SILVA                      RUA CENTRAL                                  00023AP 23          18010080CENTRO         Sorocaba                      SP15987658765 63          15987658765   2019021621U  0000000633552205     741f3b6d6c6f0c1c758fdef587fefc26
62054885312000ISENTO        ANTONIO SILVA                      RUA CENTRAL                                  00023AP 23          18010080CENTRO         Sorocaba                      SP15987658765 64          15987658765   2019021621U  0000000643552205     635dab76b573bedd449601cf687f81a0
62054885312000ISENTO        ANTONIO SILVA                      RUA CENTRAL                                  00023AP 23          18010080CENTRO         Sorocaba                      SP15987658765 65          15987658765   2019021621U  0000000653552205     a1f5978afaa365d197974a72da7be4b3
62054885312000ISENTO        ANTONIO SILVA                      RUA CENTRAL                                  00023AP 23          18010080CENTRO         Sorocaba                      SP15987658765 66          15987658765   2019021621U  0000000663552205     8eda7f1dbb58b4e77792ed04dcdcdee7
62054885312000ISENTO        ANTONIO SILVA                      RUA CENTRAL                                  00023AP 23          18010080CENTRO         Sorocaba                      SP15987658765 67          15987658765   2019021621U  0000000673552205     b494a107651304524dc4bfa8bbbf5b9a
62054885312000ISENTO        ANTONIO SILVA                      RUA CENTRAL                                  00023AP 23          18010080CENTRO         Sorocaba                      SP15987658765 68          15987658765   2019021621U  0000000683552205     e6b3631e8c7499a312389577bbdce2f8
62054885312000ISENTO        ANTONIO SILVA                      RUA CENTRAL                                  00023AP 23          18010080CENTRO         Sorocaba                      SP15987658765 69          15987658765   2019021621U  0000000693552205     335713c96b770cad94e1a04c80d2d196
62054885312000ISENTO        ANTONIO SILVA                      RUA CENTRAL                                  00023AP 23          18010080CENTRO         Sorocaba                      SP15987658765 70          15987658765   2019021621U  0000000703552205     bef2fcb91d68dbf10d8792ea5322711a
62054885312000ISENTO        ANTONIO SILVA                      RUA CENTRAL                                  00023AP 23          18010080CENTRO         Sorocaba                      SP15987658765 71          15987658765   2019021621U  0000000713552205     24792b163b5fb8b38cd491be7bbec187
62054885312000ISENTO        ANTONIO SILVA                      RUA CENTRAL                                  00023AP 23          18010080CENTRO         Sorocaba                      SP15987658765 72          15987658765   2019021621U  0000000723552205     d2eb5ec8fe9fdb92ca6806c3508869f3
62054885312000ISENTO        ANTONIO SILVA                      RUA CENTRAL                                  00023AP 23          18010080CENTRO         Sorocaba                      SP15987658765 73          15987658765   2019021621U  0000000733552205     e7bffa26e217d4afcf4132824bb225d0
62054885312000ISENTO        ANTONIO SILVA                      RUA CENTRAL                                  00023AP 23          18010080CENTRO         Sorocaba                      SP15987658765 74          15987658765   2019021621U  0000000743552205     9eedc6d79dcfc4b8d13c0b341d9668c9
62054885312000ISENTO        ANTONIO SILVA                      RUA CENTRAL                                  00023AP 23          18010080CENTRO         Sorocaba                      SP15987658765 75          15987658765   2019021621U  0000000753552205     d25de315d35343db9cdea4e6821199f8
62054885312000ISENTO        ANTONIO SILVA                      RUA CENTRAL                                  00023AP 23          18010080CENTRO         Sorocaba                      SP15987658765 76          15987658765   2019021621U  0000000763552205     c2d6919f5a17e9b3040e1a1f6945f9e3
62054885312000ISENTO        ANTONIO SILVA                      RUA CENTRAL                                  00023AP 23          18010080CENTRO         Sorocaba                      SP15987658765 77          15987658765   2019021621U  0000000773552205     6c96025b5d83a36069586ffe46ce9cea
62054885312000ISENTO        ANTONIO SILVA                      RUA CENTRAL                                  00023AP 23          18010080CENTRO         Sorocaba                      SP15987658765 78          15987658765   2019021621U  0000000783552205     bc447a7f9dce7f16549734dd7e76fae9
62054885312000ISENTO        ANTONIO SILVA                      RUA CENTRAL                                  00023AP 23          18010080CENTRO         Sorocaba                      SP15987658765 79          15987658765   2019021621U  0000000793552205     61511003594038c8d156887c7d057d5e
62054885312000ISENTO        ANTONIO SILVA                      RUA CENTRAL                                  00023AP 23          18010080CENTRO         Sorocaba                      SP15987658765 80          15987658765   2019021621U  0000000803552205     fea85b73b94a72d5f16277fbe30c5a2c
62054885312000ISENTO        ANTONIO SILVA                      RUA CENTRAL                                  00023AP 23          18010080CENTRO         Sorocaba                      SP15987658765 81          15987658765   2019021621U  0000000813552205     30888a5b9a56d14286995ba878424589
62054885312000ISENTO        ANTONIO SILVA                      RUA CENTRAL                                  00023AP 23          18010080CENTRO         Sorocaba                      SP15987658765 82          15987658765   2019021621U  0000000823552205     83c8ef7b1f126ad7e7d2021dedda08ab
62054885312000ISENTO        ANTONIO SILVA                      RUA CENTRAL                                  00023AP 23          18010080CENTRO         Sorocaba                      SP15987658765 83          15987658765   2019021621U  0000000833552205     295a13e187b2673680522a4fad7b8aec
62054885312000ISENTO        ANTONIO SILVA                      RUA CENTRAL                                  00023AP 23          18010080CENTRO         Sorocaba                      SP15987658765 84          15987658765   2019021621U  0000000843552205     36fc643b6e0185cb3bd8bec4e367877b
62054885312000ISENTO        ANTONIO SILVA                      RUA CENTRAL                                  00023AP 23          18010080CENTRO         Sorocaba                      SP15987658765 85          15987658765   2019021621U  0000000853552205     fc12b7394394e7740d9e85aaa660c664
62054885312000ISENTO        ANTONIO SILVA                      RUA CENTRAL                                  00023AP 23          18010080CENTRO         Sorocaba                      SP15987658765 86          15987658765   2019021621U  0000000863552205     7961e803805b0cba2410abdf9b3fd350
62054885312000ISENTO        ANTONIO SILVA                      RUA CENTRAL                                  00023AP 23          18010080CENTRO         Sorocaba                      SP15987658765 87          15987658765   2019021621U  0000000873552205     4b0800218802d688a8cd848cf475c4c7
62054885312000ISENTO        ANTONIO SILVA                      RUA CENTRAL                                  00023AP 23          18010080CENTRO         Sorocaba                      SP15987658765 88          15987658765   2019021621U  0000000883552205     137fa9a21caf37d78ada6e915b4ce528
62054885312000ISENTO        ANTONIO SILVA                      RUA CENTRAL                                  00023AP 23          18010080CENTRO         Sorocaba                      SP15987658765 89          15987658765   2019021621U  0000000893552205     21b0e0cf437a81bba036561a4328bd99
62054885312000ISENTO        ANTONIO SILVA                      RUA CENTRAL                                  00023AP 23          18010080CENTRO         Sorocaba                      SP15987658765 90          15987658765   2019021621U  0000000903552205     22587ba1c63d36667a89d1ea3dcad643
62054885312000ISENTO        ANTONIO SILVA                      RUA CENTRAL                                  00023AP 23          18010080CENTRO         Sorocaba                      SP15987658765 91          15987658765   2019021621U  0000000913552205     ed79644703e6d4f140c2c94ca3ba51e4
62054885312000ISENTO        ANTONIO SILVA                      RUA CENTRAL                                  00023AP 23          18010080CENTRO         Sorocaba                      SP15987658765 92          15987658765   2019021621U  0000000923552205     6c309e7a33c1f47f314ed5e6eba019fe
62054885312000ISENTO        ANTONIO SILVA                      RUA CENTRAL                                  00023AP 23          18010080CENTRO         Sorocaba                      SP15987658765 93          15987658765   2019021621U  0000000933552205     6f8f06901652b2ab54bea1a672eb59a4
62054885312000ISENTO        ANTONIO SILVA                      RUA CENTRAL                                  00023AP 23          18010080CENTRO         Sorocaba                      SP15987658765 94          15987658765   2019021621U  0000000943552205     84e31b4aa1de13383069967d4247d101
62054885312000ISENTO        ANTONIO SILVA                      RUA CENTRAL                                  00023AP 23          18010080CENTRO         Sorocaba                      SP15987658765 95          15987658765   2019021621U  0000000953552205     0917bc3b9e3ce2c26d7acea74c68404b
62054885312000ISENTO        ANTONIO SILVA                      RUA CENTRAL                                  00023AP 23          18010080CENTRO         Sorocaba                      SP15987658765 96          15987658765   2019021621U  0000000963552205     b569e9c5b67b7c6e03592f7a166f91a9
62054885312000ISENTO        ANTONIO SILVA                      RUA CENTRAL                                  00023AP 23          18010080CENTRO         Sorocaba                      SP15987658765 97          15987658765   2019021621U  0000000973552205     75fd2bfa286ed086496be7d3f4f5433d
62054885312000ISENTO        ANTONIO SILVA                      RUA CENTRAL                                  00023AP 23          18010080CENTRO         Sorocaba                      SP15987658765 98          15987658765   2019021621U  0000000983552205     0b78d78082e6859012f80194c5c411db
62054885312000ISENTO        ANTONIO SILVA                      RUA CENTRAL                                  00023AP 23          18010080CENTRO         Sorocaba                      SP15987658765 99          15987658765   2019021621U  0000000993552205     e7b6311e911f555b66f4cfb73c9460c2
62054885312000ISENTO        ANTONIO SILVA                      RUA CENTRAL                                  00023AP 23          18010080CENTRO         Sorocaba                      SP15987658765 100         15987658765   2019021621U  0000001003552205     1f89f989f8d190e5df9b884def5c5be4
62054885312000ISENTO        ANTONIO SILVA                      RUA CENTRAL                                  00023AP 23          18010080CENTRO         Sorocaba                      SP15987658765 101         15987658765   2019021621U  0000001013552205     d11201f8f840c74b4caab4d5c01833b6
62054885312000ISENTO        ANTONIO SILVA                      RUA CENTRAL                                  00023AP 23          18010080CENTRO         Sorocaba                      SP15987658765 102         15987658765   2019021621U  0000001023552205     8d82733e6cc86ba30a4b0f59edb59930
62054885312000ISENTO        ANTONIO SILVA                      RUA CENTRAL                                  00023AP 23          18010080CENTRO         Sorocaba                      SP15987658765 103         15987658765   2019021621U  0000001033552205     b5b709d5492392ee49b316076f4dc85c
62054885312000ISENTO        ANTONIO SILVA                      RUA CENTRAL                                  00023AP 23          18010080CENTRO         Sorocaba                      SP15987658765 104         15987658765   2019021621U  0000001043552205     77b2306b07b09c8eaa3322d832492636
62054885312000ISENTO        ANTONIO SILVA                      RUA CENTRAL                                  00023AP 23          18010080CENTRO         Sorocaba                      SP15987658765 105         15987658765   2019021621U  0000001053552205     e7128aacf3036240cab005f356939cd8
62054885312000ISENTO        ANTONIO SILVA                      RUA CENTRAL                                  00023AP 23          18010080CENTRO         Sorocaba                      SP15987658765 106         15987658765   2019021621U  0000001063552205     60cae808fae16502b86bb0095e55cb43
62054885312000ISENTO        ANTONIO SILVA                      RUA CENTRAL                                  00023AP 23          18010080CENTRO         Sorocaba                      SP15987658765 107         15987658765   2019021621U  0000001073552205     bac3c50d07e10a447b7257d4aaeff008
62054885312000ISENTO        ANTONIO SILVA                      RUA CENTRAL                                  00023AP 23          18010080CENTRO         Sorocaba                      SP15987658765 108         15987658765   2019021621U  0000001083552205     d7e3e6e4d4b6c339494449c2fcc88cab
62054885312000ISENTO        ANTONIO SILVA                      RUA CENTRAL                                  00023AP 23          18010080CENTRO         Sorocaba                      SP15987658765 109         15987658765   2019021621U  0000001093552205     4d8d50d96fb7a56456c801fe927cb369
62054885312000ISENTO        ANTONIO SILVA                      RUA CENTRAL                                  00023AP 23          18010080CENTRO         Sorocaba                      SP15987658765 110         15987658765   2019021621U  0000001103552205     4aec2161a894427f425d36cbbb47b9f7
62054885312000ISENTO        ANTONIO SILVA                      RUA CENTRAL                                  00023AP 23          18010080CENTRO         Sorocaba                      SP15987658765 111         15987658765   2019021621U  0000001113552205     678bc8c15e7a79b6deef12264a433da9
62054885312000ISENTO        ANTONIO SILVA                      RUA CENTRAL                                  00023AP 23          18010080CENTRO         Sorocaba                      SP15987658765 112         15987658765   2019021621U  0000001123552205     6937bd062d71b1cb5ce46b9ee199cd3e
62054885312000ISENTO        ANTONIO SILVA                      RUA CENTRAL                                  00023AP 23          18010080CENTRO         Sorocaba                      SP15987658765 113         15987658765   2019021621U  0000001133552205     b301c5264866f2e64991be5d0553e2c6
62054885312000ISENTO        ANTONIO SILVA                      RUA CENTRAL                                  00023AP 23          18010080CENTRO         Sorocaba                      SP15987658765 114         15987658765   2019021621U  0000001143552205     4f455ae9d61f868e3bb4af66aad12c1d
62054885312000ISENTO        ANTONIO SILVA                      RUA CENTRAL                                  00023AP 23          18010080CENTRO         Sorocaba                      SP15987658765 115         15987658765   2019021621U  0000001153552205     8331f17986b05d0998dfb9c901b9dbb6
62054885312000ISENTO        ANTONIO SILVA                      RUA CENTRAL                                  00023AP 23          18010080CENTRO         Sorocaba                      SP15987658765 116         15987658765   2019021621U  0000001163552205     2edd0f16a17649c491d4ccdcb94cab58
62054885312000ISENTO        ANTONIO SILVA                      RUA CENTRAL                                  00023AP 23          18010080CENTRO         Sorocaba                      SP15987658765 117         15987658765   2019021621U  0000001173552205     1f2cba1c3f2b62179aa4b6bda37e038a
62054885312000ISENTO        ANTONIO SILVA                      RUA CENTRAL                                  00023AP 23          18010080CENTRO         Sorocaba                      SP15987658765 118         15987658765   2019021621U  0000001183552205     17784b6002cf7abf10de7cc8c5ecbeff
62054885312000ISENTO        ANTONIO SILVA                      RUA CENTRAL                                  00023AP 23          18010080CENTRO         Sorocaba                      SP15987658765 119         15987658765   2019021621U  0000001193552205     5b7e2bbf1bdee1a44c44c39ed97f7595
62054885312000ISENTO        ANTONIO SILVA                      RUA CENTRAL                                  00023AP 23          18010080CENTRO         Sorocaba                      SP15987658765 120         15987658765   2019021621U  0000001203552205     cc7189673b5c34a43159958967ff2c7b
62054885312000ISENTO        ANTONIO SILVA                      RUA CENTRAL                                  00023AP 23          18010080CENTRO         Sorocaba                      SP15987658765 121         15987658765   2019021621U  0000001213552205     5b2df5d96309601b17cb9bc4f7ec967c
62054885312000ISENTO        ANTONIO SILVA                      RUA CENTRAL                                  00023AP 23          18010080CENTRO         Sorocaba                      SP15987658765 122         15987658765   2019021621U  0000001223552205     52c925ff7bd7c1a18d3ee65bc966483a
62054885312000ISENTO        ANTONIO SILVA                      RUA CENTRAL                                  00023AP 23          18010080CENTRO         Sorocaba                      SP15987658765 123         15987658765   2019021621U  0000001233552205     ae75aa8b85b7e89d5163ca5d335f6175
62054885312000ISENTO        ANTONIO SILVA                      RUA CENTRAL                                  00023AP 23          18010080CENTRO         Sorocaba                      SP15987658765 124         15987658765   2019021621U  0000001243552205     eb2bec9c1a3140df14c0dd93cb7dc37a
62054885312000ISENTO        ANTONIO SILVA                      RUA CENTRAL                                  00023AP 23          18010080CENTRO         Sorocaba                      SP15987658765 125         15987658765   2019021621U  0000001253552205     3e25e05a7e0f33e97fe152bc0d8fb0e6
62054885312000ISENTO        ANTONIO SILVA                      RUA CENTRAL                                  00023AP 23          18010080CENTRO         Sorocaba                      SP15987658765 126         15987658765   2019021621U  0000001263552205     e6bb667eda8b5d0b237eaf0c0b38a478
62054885312000ISENTO        ANTONIO SILVA                      RUA CENTRAL                                  00023AP 23          18010080CENTRO         Sorocaba                      SP15987658765 127         15987658765   2019021621U  0000001273552205     66bbb6318291a753ddcb6882e96a6fd4
62054885312000ISENTO        ANTONIO SILVA                      RUA CENTRAL                                  00023AP 23          18010080CENTRO         Sorocaba                      SP15987658765 128         15987658765   2019021621U  0000001283552205     055d77986e7424f430ee521f02616cb9
62054885312000ISENTO        ANTONIO SILVA                      RUA CENTRAL                                  00023AP 23          18010080CENTRO         Sorocaba                      SP15987658765 129         15987658765   2019021621U  0000001293552205     9c842f178235c19f3724b6c9ab6d4b28
62054885312000ISENTO        ANTONIO SILVA                      RUA CENTRAL                                  00023AP 23          18010080CENTRO         Sorocaba                      SP15987658765 130         15987658765   2019021621U  0000001303552205     4b7e6ad27362f280bf132a287065edbc
62054885312000ISENTO        ANTONIO SILVA                      RUA CENTRAL                                  00023AP 23          18010080CENTRO         Sorocaba                      SP15987658765 131         15987658765   2019021621U  0000001313552205     581fa27f0fd64b9ca6cc34c82d37ab8b
62054885312000ISENTO        ANTONIO SILVA                      RUA CENTRAL                                  00023AP 23          18010080CENTRO         Sorocaba                      SP15987658765 132         15987658765   2019021621U  0000001323552205     01bcee0b63fb79fa099e033f6bad305f
62054885312000ISENTO        ANTONIO SILVA                      RUA CENTRAL                                  00023AP 23          18010080CENTRO         Sorocaba                      SP15987658765 133         15987658765   2019021621U  0000001333552205     1ffbad5adbb951609a19220a589daa2b
62054885312000ISENTO        ANTONIO SILVA                      RUA CENTRAL                                  00023AP 23          18010080CENTRO         Sorocaba                      SP15987658765 134         15987658765   2019021621U  0000001343552205     ff42c4b1eca94f83946072eafc34cd85
62054885312000ISENTO        ANTONIO SILVA                      RUA CENTRAL                                  00023AP 23          18010080CENTRO         Sorocaba                      SP15987658765 135         15987658765   2019021621U  0000001353552205     21acc2d3e41df6a9b540fff1add17022
62054885312000ISENTO        ANTONIO SILVA                      RUA CENTRAL                                  00023AP 23          18010080CENTRO         Sorocaba                      SP15987658765 136         15987658765   2019021621U  0000001363552205     a04225d0ca5c5d57d90f2ade4b175763
62054885312000ISENTO        ANTONIO SILVA                      RUA CENTRAL                                  00023AP 23          18010080CENTRO         Sorocaba                      SP15987658765 137         15987658765   2019021621U  0000001373552205     12ef7c3460e3a508a202927653d92113
62054885312000ISENTO        ANTONIO SILVA                      RUA CENTRAL                                  00023AP 23          18010080CENTRO         Sorocaba                      SP15987658765 138         15987658765   2019021621U  0000001383552205     1c420a806e3a7c329d5b6514f66beadd
62054885312000ISENTO        ANTONIO SILVA                      RUA CENTRAL                                  00023AP 23          18010080CENTRO         Sorocaba                      SP15987658765 139         15987658765   2019021621U  0000001393552205     e64ef45ade95308576fe092244f0e183
62054885312000ISENTO        ANTONIO SILVA                      RUA CENTRAL                                  00023AP 23          18010080CENTRO         Sorocaba                      SP15987658765 140         15987658765   2019021621U  0000001403552205     a79739cc802de6d71225894101f789a8
62054885312000ISENTO        ANTONIO SILVA                      RUA CENTRAL                                  00023AP 23          18010080CENTRO         Sorocaba                      SP15987658765 141         15987658765   2019021621U  0000001413552205     788efbca00379d15bd6196b921e397c0
62054885312000ISENTO        ANTONIO SILVA                      RUA CENTRAL                                  00023AP 23          18010080CENTRO         Sorocaba                      SP15987658765 142         15987658765   2019021621U  0000001423552205     39a368462a1770c320fa3e01c2bf1b98
62054885312000ISENTO        ANTONIO SILVA                      RUA CENTRAL                                  00023AP 23          18010080CENTRO         Sorocaba                      SP15987658765 143         15987658765   2019021621U  0000001433552205     d0d697fdca2dcaa561c72ee1eb2ae10b
62054885312000ISENTO        ANTONIO SILVA                      RUA CENTRAL                                  00023AP 23          18010080CENTRO         Sorocaba                      SP15987658765 144         15987658765   2019021621U  0000001443552205     18e499bd4fc14f418c00f8cdb95d136c
62054885312000ISENTO        ANTONIO SILVA                      RUA CENTRAL                                  00023AP 23          18010080CENTRO         Sorocaba                      SP15987658765 145         15987658765   2019021621U  0000001453552205     7ae3cba9c58debc2a549701ba752952f
62054885312000ISENTO        ANTONIO SILVA                      RUA CENTRAL                                  00023AP 23          18010080CENTRO         Sorocaba                      SP15987658765 146         15987658765   2019021621U  0000001463552205     70451d567bd57921b4a299ddafd5cd60
62054885312000ISENTO        ANTONIO SILVA                      RUA CENTRAL                                  00023AP 23          18010080CENTRO         Sorocaba                      SP15987658765 147         15987658765   2019021621U  0000001473552205     a9bbeb9ad8d00c4056571f1dcaa1d934
62054885312000ISENTO        ANTONIO SILVA                      RUA CENTRAL                                  00023AP 23          18010080CENTRO         Sorocaba                      SP15987658765 148         15987658765   2019021621U  0000001483552205     047986c3c8f4dc337036433396034e38
62054885312000ISENTO        ANTONIO SILVA                      RUA CENTRAL                                  00023AP 23          18010080CENTRO         Sorocaba                      SP15987658765 149         15987658765   2019021621U  0000001493552205     dbda519cfe1a7b6646c52c5e8e69fdfc
62054885312000ISENTO        ANTONIO SILVA                      RUA CENTRAL                                  00023AP 23          18010080CENTRO         Sorocaba                      SP15987658765 150         15987658765   2019021621U  0000001503552205     4f98603a5a429a6bcebc94b1fc00cecb
62054885312000ISENTO        ANTONIO SILVA                      RUA CENTRAL                                  00023AP 23          18010080CENTRO         Sorocaba                      SP15987658765 151         15987658765   2019021621U  0000001513552205     4d59abbd8594d3dc00715711d0d591b3
62054885312000ISENTO        ANTONIO SILVA                      RUA CENTRAL                                  00023AP 23          18010080CENTRO         Sorocaba                      SP15987658765 152         15987658765   2019021621U  0000001523552205     54e7b7c22ef7721533aa3dd7c23acdbb
62054885312000ISENTO        ANTONIO SILVA                      RUA CENTRAL                                  00023AP 23          18010080CENTRO         Sorocaba                      SP15987658765 153         15987658765   2019021621U  0000001533552205     46247668af1ea4798db91b4da7cff8ee
62054885312000ISENTO        ANTONIO SILVA                      RUA CENTRAL                                  00023AP 23          18010080CENTRO         Sorocaba                      SP15987658765 154         15987658765   2019021621U  0000001543552205     464cae13984e78842627b293c1179cb5
62054885312000ISENTO        ANTONIO SILVA                      RUA CENTRAL                                  00023AP 23          18010080CENTRO         Sorocaba                      SP15987658765 155         15987658765   2019021621U  0000001553552205     df8fc17c72d85632c6cec979318b2cd9
62054885312000ISENTO        ANTONIO SILVA                      RUA CENTRAL                                  00023AP 23          18010080CENTRO         Sorocaba                      SP15987658765 156         15987658765   2019021621U  0000001563552205     3126a51114c16fc0f39c24579391e9e4
62054885312000ISENTO        ANTONIO SILVA                      RUA CENTRAL                                  00023AP 23          18010080CENTRO         Sorocaba                      SP15987658765 157         15987658765   2019021621U  0000001573552205     a06780ac51f0fefc52267be329f05e87
62054885312000ISENTO        ANTONIO SILVA                      RUA CENTRAL                                  00023AP 23          18010080CENTRO         Sorocaba                      SP15987658765 158         15987658765   2019021621U  0000001583552205     33930fac266f532c9c3b1049458363ff
62054885312000ISENTO        ANTONIO SILVA                      RUA CENTRAL                                  00023AP 23          18010080CENTRO         Sorocaba                      SP15987658765 159         15987658765   2019021621U  0000001593552205     71d33f543abd1ed4ba4b90a47e7d0e05
62054885312000ISENTO        ANTONIO SILVA                      RUA CENTRAL                                  00023AP 23          18010080CENTRO         Sorocaba                      SP15987658765 160         15987658765   2019021621U  0000001603552205     8a33005abd02e82d43b96fabf54bad17
62054885312000ISENTO        ANTONIO SILVA                      RUA CENTRAL                                  00023AP 23          18010080CENTRO         Sorocaba                      SP15987658765 161         15987658765   2019021621U  0000001613552205     072c13949811e0dd553e31534ef8c2af
62054885312000ISENTO        ANTONIO SILVA                      RUA CENTRAL                                  00023AP 23          18010080CENTRO         Sorocaba                      SP15987658765 162         15987658765   2019021621U  0000001623552205     f7761797d015c69f7d75d7d87ed8c89a
62054885312000ISENTO        ANTONIO SILVA                      RUA CENTRAL                                  00023AP 23          18010080CENTRO         Sorocaba                      SP15987658765 163         15987658765   2019021621U  0000001633552205     5582f78befbb153b3f4968f442e150a0
62054885312000ISENTO        ANTONIO SILVA                      RUA CENTRAL                                  00023AP 23          18010080CENTRO         Sorocaba                      SP15987658765 164         15987658765   2019021621U  0000001643552205     d1658ad4ef7ab8d5eaf6a6979e8af16e
62054885312000ISENTO        ANTONIO SILVA                      RUA CENTRAL                                  00023AP 23          18010080CENTRO         Sorocaba                      SP15987658765 165         15987658765   2019021621U  0000001653552205     d55ec233f7dc36aacee53d50af9d35ea
62054885312000ISENTO        ANTONIO SILVA                      RUA CENTRAL                                  00023AP 23          18010080CENTRO         Sorocaba                      SP15987658765 166         15987658765   2019021621U  0000001663552205     e1a8331ce1a6c819e36874f1b6b664f9
62054885312000ISENTO        ANTONIO SILVA                      RUA CENTRAL                                  00023AP 23          18010080CENTRO         Sorocaba                      SP15987658765 167         15987658765   2019021621U  0000001673552205     8f693a06611e79b3fa9d2797c1447be7
62054885312000ISENTO        ANTONIO SILVA                      RUA CENTRAL                                  00023AP 23          18010080CENTRO         Sorocaba                      SP15987658765 168         15987658765   2019021621U  0000001683552205     ee70b5e8219bed89f5834d6a536eefb7
62054885312000ISENTO        ANTONIO SILVA                      RUA CENTRAL                                  00023AP 23          18010080CENTRO         Sorocaba                      SP15987658765 169         15987658765   2019021621U  0000001693552205     53a39fbf9c5a6759dbe75cfeb5dcf33e
62054885312000ISENTO        ANTONIO SILVA                      RUA CENTRAL                                  00023AP 23          18010080CENTRO         Sorocaba                      SP15987658765 170         15987658765   2019021621U  0000001703552205     3d1bd1c01c8d980dc7096993b29eab3a
62054885312000ISENTO        ANTONIO SILVA                      RUA CENTRAL                                  00023AP 23          18010080CENTRO         Sorocaba                      SP15987658765 171         15987658765   2019021621U  0000001713552205     b9698d53e5f873fdcd14e836ef373367
62054885312000ISENTO        ANTONIO SILVA                      RUA CENTRAL                                  00023AP 23          18010080CENTRO         Sorocaba                      SP15987658765 172         15987658765   2019021621U  0000001723552205     1786fb4461f7dea21e161b7446be34b6
62054885312000ISENTO        ANTONIO SILVA                      RUA CENTRAL                                  00023AP 23          18010080CENTRO         Sorocaba                      SP15987658765 173         15987658765   2019021621U  0000001733552205     8f58539550d83d252df43021abbd1c6b
62054885312000ISENTO        ANTONIO SILVA                      RUA CENTRAL                                  00023AP 23          18010080CENTRO         Sorocaba                      SP15987658765 174         15987658765   2019021621U  0000001743552205     cb890c2d76a55625ac482b0c77745657
62054885312000ISENTO        ANTONIO SILVA                      RUA CENTRAL                                  00023AP 23          18010080CENTRO         Sorocaba                      SP15987658765 175         15987658765   2019021621U  0000001753552205     2abbe552a983884224e128f93bedb212
62054885312000ISENTO        ANTONIO SILVA                      RUA CENTRAL                                  00023AP 23          18010080CENTRO         Sorocaba                      SP15987658765 176         15987658765   2019021621U  0000001763552205     d635a9630e7393c2a656397bac468de6
62054885312000ISENTO        ANTONIO SILVA                      RUA CENTRAL                                  00023AP 23          18010080CENTRO         Sorocaba                      SP15987658765 177         15987658765   2019021621U  0000001773552205     b9e42c08278847c9df549c8dd8856742
62054885312000ISENTO        ANTONIO SILVA                      RUA CENTRAL                                  00023AP 23          18010080CENTRO         Sorocaba                      SP15987658765 178         15987658765   2019021621U  0000001783552205     d38635abf6731d1b3fc98b90a46ae268
62054885312000ISENTO        ANTONIO SILVA                      RUA CENTRAL                                  00023AP 23          18010080CENTRO         Sorocaba                      SP15987658765 179         15987658765   2019021621U  0000001793552205     b2417606c71f1c87d260c0f550a9c8fd
62054885312000ISENTO        ANTONIO SILVA                      RUA CENTRAL                                  00023AP 23          18010080CENTRO         Sorocaba                      SP15987658765 180         15987658765   2019021621U  0000001803552205     d4c9544e7bd84b5f96c7c1b4462aef37
62054885312000ISENTO        ANTONIO SILVA                      RUA CENTRAL                                  00023AP 23          18010080CENTRO         Sorocaba                      SP15987658765 181         15987658765   2019021621U  0000001813552205     995b1b802749da3fe122fd2824610bea
62054885312000ISENTO        ANTONIO SILVA                      RUA CENTRAL                                  00023AP 23          18010080CENTRO         Sorocaba                      SP15987658765 182         15987658765   2019021621U  0000001823552205     693a2506fa05df8c40c3b7f990807742
62054885312000ISENTO        ANTONIO SILVA                      RUA CENTRAL                                  00023AP 23          18010080CENTRO         Sorocaba                      SP15987658765 183         15987658765   2019021621U  0000001833552205     bfce1f24024bb8880e3bd40380d0b1c9
62054885312000ISENTO        ANTONIO SILVA                      RUA CENTRAL                                  00023AP 23          18010080CENTRO         Sorocaba                      SP15987658765 184         15987658765   2019021621U  0000001843552205     b0953789752be4af0bed5c08b59308db
62054885312000ISENTO        ANTONIO SILVA                      RUA CENTRAL                                  00023AP 23          18010080CENTRO         Sorocaba                      SP15987658765 185         15987658765   2019021621U  0000001853552205     1e260ff1f2c3fbd283e36c9543e54fb1
62054885312000ISENTO        ANTONIO SILVA                      RUA CENTRAL                                  00023AP 23          18010080CENTRO         Sorocaba                      SP15987658765 186         15987658765   2019021621U  0000001863552205     f267a245d0d59ad7bac4d5e669b011ac
62054885312000ISENTO        ANTONIO SILVA                      RUA CENTRAL                                  00023AP 23          18010080CENTRO         Sorocaba                      SP15987658765 187         15987658765   2019021621U  0000001873552205     66eda54d42a57ccb62e4d00c14e50c27
62054885312000ISENTO        ANTONIO SILVA                      RUA CENTRAL                                  00023AP 23          18010080CENTRO         Sorocaba                      SP15987658765 188         15987658765   2019021621U  0000001883552205     6a18b8f85e58ded23e3576cc87046721
62054885312000ISENTO        ANTONIO SILVA                      RUA CENTRAL                                  00023AP 23          18010080CENTRO         Sorocaba                      SP15987658765 189         15987658765   2019021621U  0000001893552205     425d8233f8919bc2d3c16c494f388a18
62054885312000ISENTO        ANTONIO SILVA                      RUA CENTRAL                                  00023AP 23          18010080CENTRO         Sorocaba                      SP15987658765 190         15987658765   2019021621U  0000001903552205     de1ae07919a904556b9e1c3b479a5b98
62054885312000ISENTO        ANTONIO SILVA                      RUA CENTRAL                                  00023AP 23          18010080CENTRO         Sorocaba                      SP15987658765 191         15987658765   2019021621U  0000001913552205     a21fc1e9c9e4992f19c281c742d2b4aa
62054885312000ISENTO        ANTONIO SILVA                      RUA CENTRAL                                  00023AP 23          18010080CENTRO         Sorocaba                      SP15987658765 192         15987658765   2019021621U  0000001923552205     e516b674cec0144ff41f39893491ea8a
62054885312000ISENTO        ANTONIO SILVA                      RUA CENTRAL                                  00023AP 23          18010080CENTRO         Sorocaba                      SP15987658765 193         15987658765   2019021621U  0000001933552205     fb3cbd8ef9331dc84ddaf0ecbace56e9
62054885312000ISENTO        ANTONIO SILVA                      RUA CENTRAL                                  00023AP 23          18010080CENTRO         Sorocaba                      SP15987658765 194         15987658765   2019021621U  0000001943552205     d30ec1a881f9857d4e1d7abe47ad4f41
62054885312000ISENTO        ANTONIO SILVA                      RUA CENTRAL                                  00023AP 23          18010080CENTRO         Sorocaba                      SP15987658765 195         15987658765   2019021621U  0000001953552205     eda82997bcdec201c1808e97f7257183
62054885312000ISENTO        ANTONIO SILVA                      RUA CENTRAL                                  00023AP 23          18010080CENTRO         Sorocaba                      SP15987658765 196         15987658765   2019021621U  0000001963552205     fd6c2675930dcdae799b4e39d6b4eb42
62054885312000ISENTO        ANTONIO SILVA                      RUA CENTRAL                                  00023AP 23          18010080CENTRO         Sorocaba                      SP15987658765 197         15987658765   2019021621U  0000001973552205     921ef8f129c1e51f1319e47b07ca4a73
62054885312000ISENTO        ANTONIO SILVA                      RUA CENTRAL                                  00023AP 23          18010080CENTRO         Sorocaba                      SP15987658765 198         15987658765   2019021621U  0000001983552205     4dd8f1a351bbdc34dad4e4211be8faa8
62054885312000ISENTO        ANTONIO SILVA                      RUA CENTRAL                                  00023AP 23          18010080CENTRO         Sorocaba                      SP15987658765 199         15987658765   2019021621U  0000001993552205     14f53d98f2689849e41fbe7206ade224
62054885312000ISENTO        ANTONIO SILVA                      RUA CENTRAL                                  00023AP 23          18010080CENTRO         Sorocaba                      SP15987658765 200         15987658765   2019021621U  0000002003552205     a23326bc0d04a66d280c1c3a312969f8
62054885312000ISENTO        ANTONIO SILVA                      RUA CENTRAL                                  00023AP 23          18010080CENTRO         Sorocaba                      SP15987658765 201         15987658765   2019021621U  0000002013552205     b8d3fe6daf5b45f33255da7a86d08e39
62054885312000ISENTO        ANTONIO SILVA                      RUA CENTRAL                                  00023AP 23          18010080CENTRO         Sorocaba                      SP15987658765 202         15987658765   2019021621U  0000002023552205     7d889f4ed45a08243bb81e5af7894cac
62054885312000ISENTO        ANTONIO SILVA                      RUA CENTRAL                                  00023AP 23          18010080CENTRO         Sorocaba                      SP15987658765 203         15987658765   2019021621U  0000002033552205     dd21a176dbcd3237f6aa3a3410c44dc1
62054885312000ISENTO        ANTONIO SILVA                      RUA CENTRAL                                  00023AP 23          18010080CENTRO         Sorocaba                      SP15987658765 204         15987658765   2019021621U  0000002043552205     f47fe1c27610eea4be04f03bb4fc6b0c
62054885312000ISENTO        ANTONIO SILVA                      RUA CENTRAL                                  00023AP 23          18010080CENTRO         Sorocaba                      SP15987658765 205         15987658765   2019021621U  0000002053552205     f182875ad96212fe620236bdddb87878
62054885312000ISENTO        ANTONIO SILVA                      RUA CENTRAL                                  00023AP 23          18010080CENTRO         Sorocaba                      SP15987658765 206         15987658765   2019021621U  0000002063552205     23a107c2cfab39a9835a82b42dcc9e09
62054885312000ISENTO        ANTONIO SILVA                      RUA CENTRAL                                  00023AP 23          18010080CENTRO         Sorocaba                      SP15987658765 207         15987658765   2019021621U  0000002073552205     9dcd24c3e9cbbe28c94d79c0f2df7e6a
62054885312000ISENTO        ANTONIO SILVA                      RUA CENTRAL                                  00023AP 23          18010080CENTRO         Sorocaba                      SP15987658765 208         15987658765   2019021621U  0000002083552205     882c0155e3ed99066c936fe899c40b16
62054885312000ISENTO        ANTONIO SILVA                      RUA CENTRAL                                  00023AP 23          18010080CENTRO         Sorocaba                      SP15987658765 209         15987658765   2019021621U  0000002093552205     b22e026b3dcb22ad5f481226a3021920
62054885312000ISENTO        ANTONIO SILVA                      RUA CENTRAL                                  00023AP 23          18010080CENTRO         Sorocaba                      SP15987658765 210         15987658765   2019021621U  0000002103552205     ddb5db146fba4185fe033a43e9d0f3aa
62054885312000ISENTO        ANTONIO SILVA                      RUA CENTRAL                                  00023AP 23          18010080CENTRO         Sorocaba                      SP15987658765 211         15987658765   2019021621U  0000002113552205     906b4583ee7c004d61040657e4023f60
62054885312000ISENTO        ANTONIO SILVA                      RUA CENTRAL                                  00023AP 23          18010080CENTRO         Sorocaba                      SP15987658765 212         15987658765   2019021621U  0000002123552205     9d6367cd9c425d8a44338fd655dabf66
62054885312000ISENTO        ANTONIO SILVA                      RUA CENTRAL                                  00023AP 23          18010080CENTRO         Sorocaba                      SP15987658765 213         15987658765   2019021621U  0000002133552205     18bfd6887805cda74ed0b14da9d3a325
62054885312000ISENTO        ANTONIO SILVA                      RUA CENTRAL                                  00023AP 23          18010080CENTRO         Sorocaba                      SP15987658765 214         15987658765   2019021621U  0000002143552205     5bb6e65bd71396180aec0c7466ee8bab
62054885312000ISENTO        ANTONIO SILVA                      RUA CENTRAL                                  00023AP 23          18010080CENTRO         Sorocaba                      SP15987658765 215         15987658765   2019021621U  0000002153552205     e1a721fe4f667a1a3661c9d435e16031
62054885312000ISENTO        ANTONIO SILVA                      RUA CENTRAL                                  00023AP 23          18010080CENTRO         Sorocaba                      SP15987658765 216         15987658765   2019021621U  0000002163552205     27ebecc267ee271946ef3987957b0b59
62054885312000ISENTO        ANTONIO SILVA                      RUA CENTRAL                                  00023AP 23          18010080CENTRO         Sorocaba                      SP15987658765 217         15987658765   2019021621U  0000002173552205     1a92c8c8c3150951c1234a6a6cdf72a8
62054885312000ISENTO        ANTONIO SILVA                      RUA CENTRAL                                  00023AP 23          18010080CENTRO         Sorocaba                      SP15987658765 218         15987658765   2019021621U  0000002183552205     9c155b5865f6069e5100b8d467d6c537
62054885312000ISENTO        ANTONIO SILVA                      RUA CENTRAL                                  00023AP 23          18010080CENTRO         Sorocaba                      SP15987658765 219         15987658765   2019021621U  0000002193552205     7c30dcd1abbf2d018a3b2c4d9cd3c4c7
62054885312000ISENTO        ANTONIO SILVA                      RUA CENTRAL                                  00023AP 23          18010080CENTRO         Sorocaba                      SP15987658765 220         15987658765   2019021621U  0000002203552205     d342814ef7cb351aa2527c4a5879170e
62054885312000ISENTO        ANTONIO SILVA                      RUA CENTRAL                                  00023AP 23          18010080CENTRO         Sorocaba                      SP15987658765 221         15987658765   2019021621U  0000002213552205     c7f29dc6f0fbb4e5fa8632d8a270b6ee
62054885312000ISENTO        ANTONIO SILVA                      RUA CENTRAL                                  00023AP 23          18010080CENTRO         Sorocaba                      SP15987658765 222         15987658765   2019021621U  0000002223552205     394cf8c29d620bbf03bd3e16a7c93b81
62054885312000ISENTO        ANTONIO SILVA                      RUA CENTRAL                                  00023AP 23          18010080CENTRO         Sorocaba                      SP15987658765 223         15987658765   2019021621U  0000002233552205     3b31ce5a25de7ff95461539aaad8ef10
62054885312000ISENTO        ANTONIO SILVA                      RUA CENTRAL                                  00023AP 23          18010080CENTRO         Sorocaba                      SP15987658765 224         15987658765   2019021621U  0000002243552205     8ee490a1c0567be0a4f65b1374e11189
62054885312000ISENTO        ANTONIO SILVA                      RUA CENTRAL                                  00023AP 23          18010080CENTRO         Sorocaba                      SP15987658765 225         15987658765   2019021621U  0000002253552205     c7e9c967987e67fc5d56014f47d01b6c
62054885312000ISENTO        ANTONIO SILVA                      RUA CENTRAL                                  00023AP 23          18010080CENTRO         Sorocaba                      SP15987658765 226         15987658765   2019021621U  0000002263552205     435b6a5607a1c6f59459b8cf285c6cd3
62054885312000ISENTO        ANTONIO SILVA                      RUA CENTRAL                                  00023AP 23          18010080CENTRO         Sorocaba                      SP15987658765 227         15987658765   2019021621U  0000002273552205     9026c912df2e8b199f480b2f5a96afb9
62054885312000ISENTO        ANTONIO SILVA                      RUA CENTRAL                                  00023AP 23          18010080CENTRO         Sorocaba                      SP15987658765 228         15987658765   2019021621U  0000002283552205     8e08ac55abadd6e37701eb43a82d437d
62054885312000ISENTO        ANTONIO SILVA                      RUA CENTRAL                                  00023AP 23          18010080CENTRO         Sorocaba                      SP15987658765 229         15987658765   2019021621U  0000002293552205     11bf51024f271023927bf7e6d9165cb9
62054885312000ISENTO        ANTONIO SILVA                      RUA CENTRAL                                  00023AP 23          18010080CENTRO         Sorocaba                      SP15987658765 230         15987658765   2019021621U  0000002303552205     8e6a6feb64f532773ffcab9e9f802891
62054885312000ISENTO        ANTONIO SILVA                      RUA CENTRAL                                  00023AP 23          18010080CENTRO         Sorocaba                      SP15987658765 231         15987658765   2019021621U  0000002313552205     bc687492e5021622b4fec559afc9d739
62054885312000ISENTO        ANTONIO SILVA                      RUA CENTRAL                                  00023AP 23          18010080CENTRO         Sorocaba                      SP15987658765 232         15987658765   2019021621U  0000002323552205     47800684e182f2359f29c43361bb000b
62054885312000ISENTO        ANTONIO SILVA                      RUA CENTRAL                                  00023AP 23          18010080CENTRO         Sorocaba                      SP15987658765 233         15987658765   2019021621U  0000002333552205     63f8e247cf200fbfd9519f37c33692e6
62054885312000ISENTO        ANTONIO SILVA                      RUA CENTRAL                                  00023AP 23          18010080CENTRO         Sorocaba                      SP15987658765 234         15987658765   2019021621U  0000002343552205     8d0aad705a825dc17947d4818ccd9e1a
62054885312000ISENTO        ANTONIO SILVA                      RUA CENTRAL                                  00023AP 23          18010080CENTRO         Sorocaba                      SP15987658765 235         15987658765   2019021621U  0000002353552205     ac25099593926b96bb74a1d8982380ed
62054885312000ISENTO        ANTONIO SILVA                      RUA CENTRAL                                  00023AP 23          18010080CENTRO         Sorocaba                      SP15987658765 236         15987658765   2019021621U  0000002363552205     a98617f5f451022088bbdfbad7aec8fb
62054885312000ISENTO        ANTONIO SILVA                      RUA CENTRAL                                  00023AP 23          18010080CENTRO         Sorocaba                      SP15987658765 237         15987658765   2019021621U  0000002373552205     2842aebac88302f6b425ac00302effe8
62054885312000ISENTO        ANTONIO SILVA                      RUA CENTRAL                                  00023AP 23          18010080CENTRO         Sorocaba                      SP15987658765 238         15987658765   2019021621U  0000002383552205     f0c0a8c7613d0de7c2db3eb116097433
62054885312000ISENTO        ANTONIO SILVA                      RUA CENTRAL                                  00023AP 23          18010080CENTRO         Sorocaba                      SP15987658765 239         15987658765   2019021621U  0000002393552205     a8a4e708810f2d3b08aafa0247962fdf
62054885312000ISENTO        ANTONIO SILVA                      RUA CENTRAL                                  00023AP 23          18010080CENTRO         Sorocaba                      SP15987658765 240         15987658765   2019021621U  0000002403552205     b251a825e8163dfbcaeb387d9e4de305
62054885312000ISENTO        ANTONIO SILVA                      RUA CENTRAL                                  00023AP 23          18010080CENTRO         Sorocaba                      SP15987658765 241         15987658765   2019021621U  0000002413552205     781368dd9a0444762c1c195b48cf2410
62054885312000ISENTO        ANTONIO SILVA                      RUA CENTRAL                                  00023AP 23          18010080CENTRO         Sorocaba                      SP15987658765 242         15987658765   2019021621U  0000002423552205     62cfa5f3d8bb63afcb9a4dba244d7e04
62054885312000ISENTO        ANTONIO SILVA                      RUA CENTRAL                                  00023AP 23          18010080CENTRO         Sorocaba                      SP15987658765 243         15987658765   2019021621U  0000002433552205     0e66e5ebeb80a0c3d13863b0ce630198
62054885312000ISENTO        ANTONIO SILVA                      RUA CENTRAL                                  00023AP 23          18010080CENTRO         Sorocaba                      SP15987658765 244         15987658765   2019021621U  0000002443552205     64370a8e3370248ba5c318f4bb1b0563
62054885312000ISENTO        ANTONIO SILVA                      RUA CENTRAL                                  00023AP 23          18010080CENTRO         Sorocaba                      SP15987658765 245         15987658765   2019021621U  0000002453552205     ca9554cde45105a8ea7e7d64959ceb58
62054885312000ISENTO        ANTONIO SILVA                      RUA CENTRAL                                  00023AP 23          18010080CENTRO         Sorocaba                      SP15987658765 246         15987658765   2019021621U  0000002463552205     5a6abcb6fb1ed06bc2dc1cb75935e668
62054885312000ISENTO        ANTONIO SILVA                      RUA CENTRAL                                  00023AP 23          18010080CENTRO         Sorocaba                      SP15987658765 247         15987658765   2019021621U  0000002473552205     2f3ad2e2303f26759f97de67b34769f1
62054885312000ISENTO        ANTONIO SILVA                      RUA CENTRAL                                  00023AP 23          18010080CENTRO         Sorocaba                      SP15987658765 248         15987658765   2019021621U  0000002483552205     89e156daab18bf85e35eb4875d525a35
62054885312000ISENTO        ANTONIO SILVA                      RUA CENTRAL                                  00023AP 23          18010080CENTRO         Sorocaba                      SP15987658765 249         15987658765   2019021621U  0000002493552205     6aacbd665ab46ca962889cbf19b88d54
62054885312000ISENTO        ANTONIO SILVA                      RUA CENTRAL                                  00023AP 23          18010080CENTRO         Sorocaba                      SP15987658765 250         15987658765   2019021621U  0000002503552205     ea0079008b1a25cc219e6e3036d20c62
62054885312000ISENTO        ANTONIO SILVA                      RUA CENTRAL                                  00023AP 23          18010080CENTRO         Sorocaba                      SP15987658765 251         15987658765   2019021621U  0000002513552205     6809cda87eda9f8939b32d3e960cf2b5
62054885312000ISENTO        ANTONIO SILVA                      RUA CENTRAL                                  00023AP 23          18010080CENTRO         Sorocaba                      SP15987658765 252         15987658765   2019021621U  0000002523552205     ab5a0ec3fc37a391fcfb0cb7d6b5aa07
62054885312000ISENTO        ANTONIO SILVA                      RUA CENTRAL                                  00023AP 23          18010080CENTRO         Sorocaba                      SP15987658765 253         15987658765   2019021621U  0000002533552205     223c931f70f8d99c4224b1ff425d4edd
62054885312000ISENTO        ANTONIO SILVA                      RUA CENTRAL                                  00023AP 23          18010080CENTRO         Sorocaba                      SP15987658765 254         15987658765   2019021621U  0000002543552205     9e8d29b42486b086994ec051071165f0
62054885312000ISENTO        ANTONIO SILVA                      RUA CENTRAL                                  00023AP 23          18010080CENTRO         Sorocaba                      SP15987658765 255         15987658765   2019021621U  0000002553552205     e00f2b41dfce4db9e1091b09fb5afe46
62054885312000ISENTO        ANTONIO SILVA                      RUA CENTRAL                                  00023AP 23          18010080CENTRO         Sorocaba                      SP15987658765 256         15987658765   2019021621U  0000002563552205     4d5a43023d6a45639e60040f3e6966c0
62054885312000ISENTO        ANTONIO SILVA                      RUA CENTRAL                                  00023AP 23          18010080CENTRO         Sorocaba                      SP15987658765 257         15987658765   2019021621U  0000002573552205     b27f8d8c931d87e12f65dbac320a606c
62054885312000ISENTO        ANTONIO SILVA                      RUA CENTRAL                                  00023AP 23          18010080CENTRO         Sorocaba                      SP15987658765 258         15987658765   2019021621U  0000002583552205     3b12932a70045d934c16770d5bdfee66
62054885312000ISENTO        ANTONIO SILVA                      RUA CENTRAL                                  00023AP 23          18010080CENTRO         Sorocaba                      SP15987658765 259         15987658765   2019021621U  0000002593552205     f03432413478dc60d29084f4a4f5c35e
62054885312000ISENTO        ANTONIO SILVA                      RUA CENTRAL                                  00023AP 23          18010080CENTRO         Sorocaba                      SP15987658765 260         15987658765   2019021621U  0000002603552205     73dd733ac5bc7b77a44d4528e500203b
62054885312000ISENTO        ANTONIO SILVA                      RUA CENTRAL                                  00023AP 23          18010080CENTRO         Sorocaba                      SP15987658765 261         15987658765   2019021621U  0000002613552205     1904be1604b7a5880fd638c974ee345f
62054885312000ISENTO        ANTONIO SILVA                      RUA CENTRAL                                  00023AP 23          18010080CENTRO         Sorocaba                      SP15987658765 262         15987658765   2019021621U  0000002623552205     223f807e1f0edbad16bda7ed5666e2a9
62054885312000ISENTO        ANTONIO SILVA                      RUA CENTRAL                                  00023AP 23          18010080CENTRO         Sorocaba                      SP15987658765 263         15987658765   2019021621U  0000002633552205     49d87420461b7ef3b53efe5e69178d09
62054885312000ISENTO        ANTONIO SILVA                      RUA CENTRAL                                  00023AP 23          18010080CENTRO         Sorocaba                      SP15987658765 264         15987658765   2019021621U  0000002643552205     08546a4b3e3554193db125c463428374
62054885312000ISENTO        ANTONIO SILVA                      RUA CENTRAL                                  00023AP 23          18010080CENTRO         Sorocaba                      SP15987658765 265         15987658765   2019021621U  0000002653552205     55af82e11ed1f9ead0d8bb49e36a450f
62054885312000ISENTO        ANTONIO SILVA                      RUA CENTRAL                                  00023AP 23          18010080CENTRO         Sorocaba                      SP15987658765 266         15987658765   2019021621U  0000002663552205     29937ba02f906abff40c3f2551e018eb
62054885312000ISENTO        ANTONIO SILVA                      RUA CENTRAL                                  00023AP 23          18010080CENTRO         Sorocaba                      SP15987658765 267         15987658765   2019021621U  0000002673552205     d7a5dfef5b985d9926c9123e13c578bc
62054885312000ISENTO        ANTONIO SILVA                      RUA CENTRAL                                  00023AP 23          18010080CENTRO         Sorocaba                      SP15987658765 268         15987658765   2019021621U  0000002683552205     b50e183da55076281b28d7b2515f1700
62054885312000ISENTO        ANTONIO SILVA                      RUA CENTRAL                                  00023AP 23          18010080CENTRO         Sorocaba                      SP15987658765 269         15987658765   2019021621U  0000002693552205     9290c86662fd0c3fef343154da9eceee
62054885312000ISENTO        ANTONIO SILVA                      RUA CENTRAL                                  00023AP 23          18010080CENTRO         Sorocaba                      SP15987658765 270         15987658765   2019021621U  0000002703552205     898f76bb2b31cf26ca34554976bc573d
62054885312000ISENTO        ANTONIO SILVA                      RUA CENTRAL                                  00023AP 23          18010080CENTRO         Sorocaba                      SP15987658765 271         15987658765   2019021621U  0000002713552205     9c4f682c88bdf377492464801dab507d
62054885312000ISENTO        ANTONIO SILVA                      RUA CENTRAL                                  00023AP 23          18010080CENTRO         Sorocaba                      SP15987658765 272         15987658765   2019021621U  0000002723552205     523d868906bd84bffd38573ceee3344f
62054885312000ISENTO        ANTONIO SILVA                      RUA CENTRAL                                  00023AP 23          18010080CENTRO         Sorocaba                      SP15987658765 273         15987658765   2019021621U  0000002733552205     787a0be6a1770dd79ed2ca070fac6907
62054885312000ISENTO        ANTONIO SILVA                      RUA CENTRAL                                  00023AP 23          18010080CENTRO         Sorocaba                      SP15987658765 274         15987658765   2019021621U  0000002743552205     c050a106c39eaaef748268d95f985fe5
62054885312000ISENTO        ANTONIO SILVA                      RUA CENTRAL                                  00023AP 23          18010080CENTRO         Sorocaba                      SP15987658765 275         15987658765   2019021621U  0000002753552205     9e6fb1d6a772a789caaf06ceedccf4c9
62054885312000ISENTO        ANTONIO SILVA                      RUA CENTRAL                                  00023AP 23          18010080CENTRO         Sorocaba                      SP15987658765 276         15987658765   2019021621U  0000002763552205     5c8e2d2c71ca6f894f2217f102e40686
62054885312000ISENTO        ANTONIO SILVA                      RUA CENTRAL                                  00023AP 23          18010080CENTRO         Sorocaba                      SP15987658765 277         15987658765   2019021621U  0000002773552205     d3cebc58b71497b9bed9124242a4251a
62054885312000ISENTO        ANTONIO SILVA                      RUA CENTRAL                                  00023AP 23          18010080CENTRO         Sorocaba                      SP15987658765 278         15987658765   2019021621U  0000002783552205     b8ff58bab5e7e079497aa4b9ba9b32eb
62054885312000ISENTO        ANTONIO SILVA                      RUA CENTRAL                                  00023AP 23          18010080CENTRO         Sorocaba                      SP15987658765 279         15987658765   2019021621U  0000002793552205     caf3eeaac3ba88fea620d92a27bf46cb
62054885312000ISENTO        ANTONIO SILVA                      RUA CENTRAL                                  00023AP 23          18010080CENTRO         Sorocaba                      SP15987658765 280         15987658765   2019021621U  0000002803552205     b95fd58315bab744319c996524ae7de2
62054885312000ISENTO        ANTONIO SILVA                      RUA CENTRAL                                  00023AP 23          18010080CENTRO         Sorocaba                      SP15987658765 281         15987658765   2019021621U  0000002813552205     d77ffdafc10a16c9fa60d4e0dd0b0a6a
62054885312000ISENTO        ANTONIO SILVA                      RUA CENTRAL                                  00023AP 23          18010080CENTRO         Sorocaba                      SP15987658765 282         15987658765   2019021621U  0000002823552205     0d9e4b238622bec1f42a3c84b8fde279
62054885312000ISENTO        ANTONIO SILVA                      RUA CENTRAL                                  00023AP 23          18010080CENTRO         Sorocaba                      SP15987658765 283         15987658765   2019021621U  0000002833552205     467231f8bcfdf5c5308750d9be3a38a2
62054885312000ISENTO        ANTONIO SILVA                      RUA CENTRAL                                  00023AP 23          18010080CENTRO         Sorocaba                      SP15987658765 284         15987658765   2019021621U  0000002843552205     c29ef83c7c80a5184f9ec58f8fc2fb9c
62054885312000ISENTO        ANTONIO SILVA                      RUA CENTRAL                                  00023AP 23          18010080CENTRO         Sorocaba                      SP15987658765 285         15987658765   2019021621U  0000002853552205     7cffefd4038dc69003e383c6597dff56
62054885312000ISENTO        ANTONIO SILVA                      RUA CENTRAL                                  00023AP 23          18010080CENTRO         Sorocaba                      SP15987658765 286         15987658765   2019021621U  0000002863552205     e8d2ed85d8da0f4309e687a329e501ea
62054885312000ISENTO        ANTONIO SILVA                      RUA CENTRAL                                  00023AP 23          18010080CENTRO         Sorocaba                      SP15987658765 287         15987658765   2019021621U  0000002873552205     c30e2d204f4dc6f1499eba8ebfd64c6f
62054885312000ISENTO        ANTONIO SILVA                      RUA CENTRAL                                  00023AP 23          18010080CENTRO         Sorocaba                      SP15987658765 288         15987658765   2019021621U  0000002883552205     8d854654b1498c2d549acf616c19354f
62054885312000ISENTO        ANTONIO SILVA                      RUA CENTRAL                                  00023AP 23          18010080CENTRO         Sorocaba                      SP15987658765 289         15987658765   2019021621U  0000002893552205     c849cd4f6468f16884838080610f1594
62054885312000ISENTO        ANTONIO SILVA                      RUA CENTRAL                                  00023AP 23          18010080CENTRO         Sorocaba                      SP15987658765 290         15987658765   2019021621U  0000002903552205     deddf1e56533d760e26e0d97386b4e4c
62054885312000ISENTO        ANTONIO SILVA                      RUA CENTRAL                                  00023AP 23          18010080CENTRO         Sorocaba                      SP15987658765 291         15987658765   2019021621U  0000002913552205     37dc60d4284aac835ee27e67ffe44523
62054885312000ISENTO        ANTONIO SILVA                      RUA CENTRAL                                  00023AP 23          18010080CENTRO         Sorocaba                      SP15987658765 292         15987658765   2019021621U  0000002923552205     b002eaa3cecbc5bc021b94d36bcbe269
62054885312000ISENTO        ANTONIO SILVA                      RUA CENTRAL                                  00023AP 23          18010080CENTRO         Sorocaba                      SP15987658765 293         15987658765   2019021621U  0000002933552205     b47a93af79606f5612eaf00c07ac17fb
62054885312000ISENTO        ANTONIO SILVA                      RUA CENTRAL                                  00023AP 23          18010080CENTRO         Sorocaba                      SP15987658765 294         15987658765   2019021621U  0000002943552205     1ed6e37991093701bbbe0b5852b3811f
62054885312000ISENTO        ANTONIO SILVA                      RUA CENTRAL                                  00023AP 23          18010080CENTRO         Sorocaba                      SP15987658765 295         15987658765   2019021621U  0000002953552205     4d2a16efcdc2b277c1d1ce74437d2a6f
62054885312000ISENTO        ANTONIO SILVA                      RUA CENTRAL                                  00023AP 23          18010080CENTRO         Sorocaba                      SP15987658765 296         15987658765   2019021621U  0000002963552205     d61bb60732e0cd439072c519ee2118d6
62054885312000ISENTO        ANTONIO SILVA                      RUA CENTRAL                                  00023AP 23          18010080CENTRO         Sorocaba                      SP15987658765 297         15987658765   2019021621U  0000002973552205     a9a0f73b3eee6d2df8c334a76db6b5d1
62054885312000ISENTO        ANTONIO SILVA                      RUA CENTRAL                                  00023AP 23          18010080CENTRO         Sorocaba                      SP15987658765 298         15987658765   2019021621U  0000002983552205     72fbb994e32ce0e2dc417221195e9ad4
62054885312000ISENTO        ANTONIO SILVA                      RUA CENTRAL                                  00023AP 23          18010080CENTRO         Sorocaba                      SP15987658765 299         15987658765   2019021621U  0000002993552205     426a2c453eb2d3d1dee3acc49a5f0c94
62054885312000ISENTO        ANTONIO SILVA                      RUA CENTRAL                                  00023AP 23          18010080CENTRO         Sorocaba                      SP15987658765 300         15987658765   2019021621U  0000003003552205     d2e11c0cc7d2ce758a6a658f520217e7
62054885312000ISENTO        ANTONIO SILVA                      RUA CENTRAL                                  00023AP 23          18010080CENTRO         Sorocaba                      SP15987658765 301         15987658765   2019021621U  0000003013552205     eeb035431c9420a884b46804ed7ec332
62054885312000ISENTO        ANTONIO SILVA                      RUA CENTRAL                                  00023AP 23          18010080CENTRO         Sorocaba                      SP15987658765 302         15987658765   2019021621U  0000003023552205     6830acc7cc9963ab5e010e1b3cc22c18
62054885312000ISENTO        ANTONIO SILVA                      RUA CENTRAL                                  00023AP 23          18010080CENTRO         Sorocaba                      SP15987658765 303         15987658765   2019021621U  0000003033552205     45c0728d9326d55b4b49e8d55e963f15
62054885312000ISENTO        ANTONIO SILVA                      RUA CENTRAL                                  00023AP 23          18010080CENTRO         Sorocaba                      SP15987658765 304         15987658765   2019021621U  0000003043552205     6efb2a9e5db2c2b4d277bdf7ee5a540c
62054885312000ISENTO        ANTONIO SILVA                      RUA CENTRAL                                  00023AP 23          18010080CENTRO         Sorocaba                      SP15987658765 305         15987658765   2019021621U  0000003053552205     0349e6e441face3bf3cce1c193a53f81
62054885312000ISENTO        ANTONIO SILVA                      RUA CENTRAL                                  00023AP 23          18010080CENTRO         Sorocaba                      SP15987658765 306         15987658765   2019021621U  0000003063552205     dc20cacdee722188b4069fd49386fd6b
62054885312000ISENTO        ANTONIO SILVA                      RUA CENTRAL                                  00023AP 23          18010080CENTRO         Sorocaba                      SP15987658765 307         15987658765   2019021621U  0000003073552205     99de30dca3564411400e86ab0e4e597f
62054885312000ISENTO        ANTONIO SILVA                      RUA CENTRAL                                  00023AP 23          18010080CENTRO         Sorocaba                      SP15987658765 308         15987658765   2019021621U  0000003083552205     d683f678dc1c5b65741a96f601a2c507
62054885312000ISENTO        ANTONIO SILVA                      RUA CENTRAL                                  00023AP 23          18010080CENTRO         Sorocaba                      SP15987658765 309         15987658765   2019021621U  0000003093552205     75c24d3386d571db9aaa17982f5206e5
62054885312000ISENTO        ANTONIO SILVA                      RUA CENTRAL                                  00023AP 23          18010080CENTRO         Sorocaba                      SP15987658765 310         15987658765   2019021621U  0000003103552205     ca58cc66c3e9b17045439029de15e383
62054885312000ISENTO        ANTONIO SILVA                      RUA CENTRAL                                  00023AP 23          18010080CENTRO         Sorocaba                      SP15987658765 311         15987658765   2019021621U  0000003113552205     9dc5c41debaf4c2c0d784005e503c73f
62054885312000ISENTO        ANTONIO SILVA                      RUA CENTRAL                                  00023AP 23          18010080CENTRO         Sorocaba                      SP15987658765 312         15987658765   2019021621U  0000003123552205     fe4c9613b6ccb0ea1f91e8bfb9a28933
62054885312000ISENTO        ANTONIO SILVA                      RUA CENTRAL                                  00023AP 23          18010080CENTRO         Sorocaba                      SP15987658765 313         15987658765   2019021621U  0000003133552205     fcac69f3c1118d09a20883bc68e1eb62
62054885312000ISENTO        ANTONIO SILVA                      RUA CENTRAL                                  00023AP 23          18010080CENTRO         Sorocaba                      SP15987658765 314         15987658765   2019021621U  0000003143552205     11cf0af88ddf2096dbf125d6351c50c0
62054885312000ISENTO        ANTONIO SILVA                      RUA CENTRAL                                  00023AP 23          18010080CENTRO         Sorocaba                      SP15987658765 315         15987658765   2019021621U  0000003153552205     89811e6f063898c52f924a49a4f9e552
62054885312000ISENTO        ANTONIO SILVA                      RUA CENTRAL                                  00023AP 23          18010080CENTRO         Sorocaba                      SP15987658765 316         15987658765   2019021621U  0000003163552205     fb63a2af126a1209097b0c5ca83cc4d7
62054885312000ISENTO        ANTONIO SILVA                      RUA CENTRAL                                  00023AP 23          18010080CENTRO         Sorocaba                      SP15987658765 317         15987658765   2019021621U  0000003173552205     c093084df986c78f87796c11b4b5f490
62054885312000ISENTO        ANTONIO SILVA                      RUA CENTRAL                                  00023AP 23          18010080CENTRO         Sorocaba                      SP15987658765 318         15987658765   2019021621U  0000003183552205     e53855c9402fd65ce1c367ef152a04f1
62054885312000ISENTO        ANTONIO SILVA                      RUA CENTRAL                                  00023AP 23          18010080CENTRO         Sorocaba                      SP15987658765 319         15987658765   2019021621U  0000003193552205     0fbe5f578402914266620416c94ba790
62054885312000ISENTO        ANTONIO SILVA                      RUA CENTRAL                                  00023AP 23          18010080CENTRO         Sorocaba                      SP15987658765 320         15987658765   2019021621U  0000003203552205     45475029cf2ce19969aa9235fcc919f7
62054885312000ISENTO        ANTONIO SILVA                      RUA CENTRAL                                  00023AP 23          18010080CENTRO         Sorocaba                      SP15987658765 321         15987658765   2019021621U  0000003213552205     f8bf2b4f6d2c1639f4d635c47c2dc3c6
62054885312000ISENTO        ANTONIO SILVA                      RUA CENTRAL                                  00023AP 23          18010080CENTRO         Sorocaba                      SP15987658765 322         15987658765   2019021621U  0000003223552205     4a2bbc059198e352c7321ebd3bf3c41e
62054885312000ISENTO        ANTONIO SILVA                      RUA CENTRAL                                  00023AP 23          18010080CENTRO         Sorocaba                      SP15987658765 323         15987658765   2019021621U  0000003233552205     1a17153c5e2191532023ba181b2f238f
62054885312000ISENTO        ANTONIO SILVA                      RUA CENTRAL                                  00023AP 23          18010080CENTRO         Sorocaba                      SP15987658765 324         15987658765   2019021621U  0000003243552205     8c24d90af3bee29f8e9c795356574cbc
62054885312000ISENTO        ANTONIO SILVA                      RUA CENTRAL                                  00023AP 23          18010080CENTRO         Sorocaba                      SP15987658765 325         15987658765   2019021621U  0000003253552205     6b0e144f8091ebe1b02442ee850b12f2
62054885312000ISENTO        ANTONIO SILVA                      RUA CENTRAL                                  00023AP 23          18010080CENTRO         Sorocaba                      SP15987658765 326         15987658765   2019021621U  0000003263552205     ce7b8920d693e0fcba676e21cc366dda
62054885312000ISENTO        ANTONIO SILVA                      RUA CENTRAL                                  00023AP 23          18010080CENTRO         Sorocaba                      SP15987658765 327         15987658765   2019021621U  0000003273552205     8bf79533c963ab5a08885051f069dddf
62054885312000ISENTO        ANTONIO SILVA                      RUA CENTRAL                                  00023AP 23          18010080CENTRO         Sorocaba                      SP15987658765 328         15987658765   2019021621U  0000003283552205     ce45489d30347b6123fd32fcad0d9ec6
62054885312000ISENTO        ANTONIO SILVA                      RUA CENTRAL                                  00023AP 23          18010080CENTRO         Sorocaba                      SP15987658765 329         15987658765   2019021621U  0000003293552205     7daf8c57f34505c7650f9b6759ad99c6
62054885312000ISENTO        ANTONIO SILVA                      RUA CENTRAL                                  00023AP 23          18010080CENTRO         Sorocaba                      SP15987658765 330         15987658765   2019021621U  0000003303552205     9999c7dced873569e4e8f5ef6f4633ec
62054885312000ISENTO        ANTONIO SILVA                      RUA CENTRAL                                  00023AP 23          18010080CENTRO         Sorocaba                      SP15987658765 331         15987658765   2019021621U  0000003313552205     b0486ce7147705fcd6059b0aa7bd8984
62054885312000ISENTO        ANTONIO SILVA                      RUA CENTRAL                                  00023AP 23          18010080CENTRO         Sorocaba                      SP15987658765 332         15987658765   2019021621U  0000003323552205     b7d8e9cb13370a0b7d0f73810fdb8c0c
62054885312000ISENTO        ANTONIO SILVA                      RUA CENTRAL                                  00023AP 23          18010080CENTRO         Sorocaba                      SP15987658765 333         15987658765   2019021621U  0000003333552205     5b5efd1ba48da5c2e558718404855cee
62054885312000ISENTO        ANTONIO SILVA                      RUA CENTRAL                                  00023AP 23          18010080CENTRO         Sorocaba                      SP15987658765 334         15987658765   2019021621U  0000003343552205     d8a3a1bf345d1748f7766bddcc3fbbb1
62054885312000ISENTO        ANTONIO SILVA                      RUA CENTRAL                                  00023AP 23          18010080CENTRO         Sorocaba                      SP15987658765 335         15987658765   2019021621U  0000003353552205     7019a6949afe08cf9938946f3d5ef555
62054885312000ISENTO        ANTONIO SILVA                      RUA CENTRAL                                  00023AP 23          18010080CENTRO         Sorocaba                      SP15987658765 336         15987658765   2019021621U  0000003363552205     d2b8cb7148421d2a675ed5158c1b15a9
62054885312000ISENTO        ANTONIO SILVA                      RUA CENTRAL                                  00023AP 23          18010080CENTRO         Sorocaba                      SP15987658765 337         15987658765   2019021621U  0000003373552205     117202b2dbc9f4823197fd0dc42897fc
62054885312000ISENTO        ANTONIO SILVA                      RUA CENTRAL                                  00023AP 23          18010080CENTRO         Sorocaba                      SP15987658765 338         15987658765   2019021621U  0000003383552205     083526a6f9daf3d67dd9b7890e57fdb5
62054885312000ISENTO        ANTONIO SILVA                      RUA CENTRAL                                  00023AP 23          18010080CENTRO         Sorocaba                      SP15987658765 339         15987658765   2019021621U  0000003393552205     777e95e9e856c83071aa71ae23662e76
62054885312000ISENTO        ANTONIO SILVA                      RUA CENTRAL                                  00023AP 23          18010080CENTRO         Sorocaba                      SP15987658765 340         15987658765   2019021621U  0000003403552205     b862d6c0ad260d1a8bfe76977178cc9c
62054885312000ISENTO        ANTONIO SILVA                      RUA CENTRAL                                  00023AP 23          18010080CENTRO         Sorocaba                      SP15987658765 341         15987658765   2019021621U  0000003413552205     75d66ad3784a58b4761ff536c9dcced4
62054885312000ISENTO        ANTONIO SILVA                      RUA CENTRAL                                  00023AP 23          18010080CENTRO         Sorocaba                      SP15987658765 342         15987658765   2019021621U  0000003423552205     7b6bdc56891ca71990378c15a7873107
62054885312000ISENTO        ANTONIO SILVA                      RUA CENTRAL                                  00023AP 23          18010080CENTRO         Sorocaba                      SP15987658765 343         15987658765   2019021621U  0000003433552205     006c6066dbfa8ecbd00d68d1ba936204
62054885312000ISENTO        ANTONIO SILVA                      RUA CENTRAL                                  00023AP 23          18010080CENTRO         Sorocaba                      SP15987658765 344         15987658765   2019021621U  0000003443552205     df9454e84020057812193bdf203fdfef
62054885312000ISENTO        ANTONIO SILVA                      RUA CENTRAL                                  00023AP 23          18010080CENTRO         Sorocaba                      SP15987658765 345         15987658765   2019021621U  0000003453552205     f86a1dc27d6365e7bfd2b117b42635c7
62054885312000ISENTO        ANTONIO SILVA                      RUA CENTRAL                                  00023AP 23          18010080CENTRO         Sorocaba                      SP15987658765 346         15987658765   2019021621U  0000003463552205     8d40f66582f8731494be4e2a825bbb42
