1099999999000199999999999     PROVEDOR X LTDA ME                 CURITIBA                      PR41999999992021041520210418331
11RUA CENTRAL                       00999SALA 99               CENTRO         99999999BOB WILSON                  009999999999
75202104152021041822222                                                                      mbps  000000000000000000000000000
75202104152021041811111                                                                      mbps  000000000000000000000000000
75202104152021041811111                                                                      mbps  000000000000000000000000000
75202104152021041811111                                                                      mbps  000000000000000000000000000
75202104152021041811111                                                                      mbps  000000000000000000000000000
75202104152021041811111                                                                      mbps  000000000000000000000000000
7600040722969961ISENTO        21    00000000015307100000000PR0000000024975000000000000000000000000000000000000000000002497500N
770004072296996121    00000000015307100111111      000000000100000000000499500000000000000000000499500000000000000000000000000
9099999999000199999999999     7500000006760000000177000000019900000011                                                       1
